:020000040800F2
:1000000058040020010100080B0C0008790A0008C0
:10001000090C00086D0100082D0D0008000000000B
:100020000000000000000000000000000F0C0008AD
:100030006F010008000000000D0C0008110C000802
:100040001B0100081B0100081B0100081B01000820
:100050001B0100081B0100081B0100081B01000810
:100060001B0100081B0100081B0100081B01000800
:100070001B0100081B0100081B0100081B010008F0
:100080001B0100081B0100081B0100081B010008E0
:100090001B0100081B0100081B0100081B010008D0
:1000A0001B0100081B0100081B0100081B010008C0
:1000B0001B0100081B0100081B0100081B010008B0
:1000C0001B0100081B0100081B0100081B010008A0
:1000D0001B0100081B0100081B0100081B01000890
:1000E0001B0100081B0100081B010008DFF80CD0F1
:1000F00000F02AF8004800476D0D00085804002061
:100100000648804706480047FEE7FEE7FEE7FEE7B1
:10011000FEE7FEE7FEE7FEE7FEE7FEE7730C0008FA
:10012000ED000008D2B201E000F8012B491EFBD21D
:1001300070470022F6E710B513460A4604461946F2
:10014000FFF7F0FF204610BD064C074D06E0E068C3
:1001500040F0010394E8070098471034AC42F6D30E
:10016000FFF7C8FFAC0D0008CC0D0008FEE7704794
:1001700072B6FEE770B5044600F004F90546601C4F
:1001800002D004480078044400F0FCF8401BA04270
:10019000FAD370BD000000202DE9F84FDFF8B891C8
:1001A0000024A9F1040B23460F2709F1040AABF13F
:1001B000040EC9E00125A5402A40AA427DD1674E20
:1001C000D1F804C0ACEB0608B44532D014DCBCF165
:1001D000030F3AD009DCBCF1000F2AD0BCF1010FAB
:1001E0001CD0BCF1020F31D11DE0BCF1110F17D0B2
:1001F000BCF1120F2AD119E0B8F5881F19D006DC1E
:10020000B8F5803F15D0B8F5801F1FD111E0B8F5C3
:10021000001F0ED0B8F5041F18D10AE0CB6815E016
:10022000CB681B1D12E0CB6808330FE0CB680C33A2
:100230000CE08B682BB1012B4FF0080303D0456114
:1002400004E0042302E0056100E00023FF2A01D856
:10025000064601E000F104064FEA840501D9A5F144
:100260002005D6F8008007FA05FC28EA0C0803FAF6
:1002700005F548EA0508C6F800804D68ED0062D52E
:10028000374DAE6946F00106AE61AD6924F0030654
:1002900005F001050095334D06EB050CDCF8085020
:1002A000A607360F07FA06F825EA0805DFF8B88032
:1002B000404503D14FF0000817E044E0DFF8AC8080
:1002C000404502D14FF001080FE0DFF8A48040451F
:1002D00002D14FF0020808E0DFF89880404502D1D3
:1002E0004FF0030801E04FF0040808FA06F848EA66
:1002F0000508CCF808804D68D9F80060ED024D463D
:1003000001D5164300E096432E604D68DAF8006090
:10031000AD02554601D5164300E096432E604D6868
:10032000DBF80060AD035D4601D5164300E096435F
:100330002E604D68DEF80060ED03754601D516436A
:1003400000E096432E60641C0D682A46E5407FF469
:1003500031AFBDE8F88F0000080401400000111023
:10036000001002400000014000080140000C014064
:1003700000100140001401400AB1016170470904F6
:10038000FBE7000001488068704700000000002083
:1003900002488168027811448160704700000020A3
:1003A000074810B5016841F010010160032000F01A
:1003B00067F80F2000F006F800F024F8002010BDC8
:1003C0000020024070B50D4D04464FF47A71287834
:1003D000B1FBF0F00A490968B1FBF0F000F0CEFA89
:1003E00048B9102C07D200222146501E00F028F8F0
:1003F00000206C6070BD012070BD00000000002076
:100400000C0000200C4808B5816941F001018161B0
:10041000816901F001010091C16941F08051C16120
:10042000C06900F0805000900448416821F0E0610C
:1004300041F00071416008BD001002400000014021
:10044000F0B40E4B1B680C46C3F30223C3F107053F
:10045000042D00D90425191D072901D2002300E02D
:10046000DB1E012606FA05F1491E214099409E40F7
:10047000761E16403143F0BC00F059BC0CED00E094
:10048000064900F0070208684FF6FF03184040EAEB
:100490000220034A10430860704700000CED00E0A2
:1004A0000000FA052DE9F0470F46050061D0434EE4
:1004B000306800F00700B84209D2306820F0070029
:1004C00038433060306800F00700B84251D12868E6
:1004D0003B4C810712D5400703D5606840F4E060CB
:1004E00060602878000703D5606840F46050606061
:1004F0006068A96820F0F000084360602878C007B1
:1005000028D06868012810D02168022810D08907F7
:1005100000292EDA616821F0030101436160FFF7D1
:1005200031FF804641F288390DE021688903EFE709
:100530008901EDE7FFF726FFA0EB0801494502D945
:100540000320BDE8F0876068696800F00C00B0EB3C
:10055000810FEFD1306800F00700B8420BD9306846
:1005600020F0070038433060306800F00700B842E0
:1005700001D00120E5E72878400705D56068E968E3
:1005800020F4E060084360602878000706D56068C2
:10059000296920F4605040EAC100606000F038F83A
:1005A0006168084AC1F30311515CC84006490860FC
:1005B00006480068FFF706FF0020C2E7002002405F
:1005C00000100240940D00080C00002004000020E0
:1005D0000448054900684968044AC1F30221515C96
:1005E000C84070470C00002000100240A40D000815
:1005F0000448054900684968044AC1F3C221515CB6
:10060000C84070470C00002000100240A40D0008F4
:100610000E4A51680E4801F00C03042B11D0082B30
:100620000FD10C48C1F38343C903C05C0AD551689C
:10063000084AC1F34041921E515C054A5043B0FB49
:10064000F1F0704704494843704700000010024031
:1006500000127A00840D000800093D002DE9F84FD2
:10066000040070D02078C04DC00749D06868C0F33E
:100670008100012807D06868C0F38100022809D1F1
:100680006868C00306D52868800339D560680028EB
:10069000E7D035E06068B0F5803F0BD010B1B0F521
:1006A000A02F11D0286820F480302860286820F41A
:1006B000802002E0286840F480302860606890B1B3
:1006C000FFF760FE06460AE0286840F480202860B4
:1006D000F0E700BFFFF756FE801B642873D8286838
:1006E0008003F7D50CE0FFF74DFE064605E000BF9E
:1006F000FFF748FE801B6428F0D828688003F7D4F1
:1007000020789A4E80074FF001094FF0000839D544
:10071000686810F00C0F07D06868C0F381000228E9
:1007200009D16868C00306D42868800714D52069F9
:10073000012808D110E02069B0B1C6F80090FFF799
:1007400021FE074605E00AE1FFF71CFEC01B022858
:10075000C4D828688007F7D52868616920F0F800B8
:1007600040EAC10028600DE0C6F80080FFF70AFEED
:10077000074604E0FFF706FEC01B022823D82868BE
:100780008007F7D4207800072CD57948A169D9B122
:10079000C0F80090FFF7F6FD074604E0FFF7F2FD12
:1007A000C01B02280FD8686A8007F7D571484FF43C
:1007B000FA510068B0FBF1F0009000BF0098411EB4
:1007C0000091FAD20EE080E0C0F80080FFF7DAFD79
:1007D000074604E0FFF7D6FDC01B022875D8686AFB
:1007E0008007F7D42078400760D5E8690027C0006B
:1007F00008D4E86940F08050E861E869012700F01A
:10080000805000905C480168C90513D40168834694
:1008100041F480710160FFF7B5FD824606E000BF3C
:10082000FFF7B0FDA0EB0A0064284ED8DBF800000B
:10083000C005F5D5E06801280AD008B1052813D015
:10084000286A20F001002862286A20F0040002E0F3
:10085000286A40F001002862E06841F2883B98B1C4
:10086000FFF790FD82460BE0286A40F00400286202
:10087000EEE700BFFFF786FDA0EB0A0159455AD805
:10088000286A8007F6D50CE0FFF77CFD824605E07C
:10089000FFF778FDA0EB0A0159454CD8286A80077C
:1008A000F6D41FB1E86920F08050E861E06988B3B0
:1008B0006968C1F38101022944D00228C6F860802A
:1008C00004D0FFF75FFD044638E034E0FFF75AFD3F
:1008D000074604E0FFF756FDC01B02282BD8286806
:1008E0008001F7D4206AB0F5803F05D16868A1681F
:1008F00020F4003008436860D4E9080108436968BF
:1009000021F4741108436860C6F86090FFF73AFD5F
:10091000044606E025E000BFFFF734FD001B022877
:1009200009D828688001F7D51BE000BFFFF72AFD32
:10093000001B022802D90320BDE8F88F2868800137
:10094000F4D40EE00128F7D06868226A00F4803100
:10095000914204D1616A00F47010884201D00120F4
:10096000EAE70020E8E700000010024000004242F1
:10097000800442420C0000200070004010B5401E70
:10098000B0F1807F01D3012010BD4FF0E024606101
:100990000F21601700F0CBF90020A0610720206133
:1009A000002010BD70B5040004D094F8410000256B
:1009B00010B106E0012070BD84F84050204600F0E0
:1009C00023F8242084F841002068C16821F40051F4
:1009D000C160204600F04EF92068016921F4904181
:1009E00001612068416921F02A0141612068C168E4
:1009F00041F40051C1606564202084F8410084F80E
:100A000042006563002070BD30B585B000240094BD
:100A100001940294039400681449884224D1144834
:100A2000816941F480418161816901F480410491CF
:100A3000816941F00401816180690E4D00F004007C
:100A400004904FF400700090022001900320039066
:100A500069462846FFF7A0FB2815CDE90004694642
:100A600028460294FFF798FB05B030BD00380140DE
:100A70000010024000080140FEE710B5382000F0E9
:100A80000BF80C2000F008F8062000F005F8BDE88F
:100A900010400120AFF3008070B5184D04460022CD
:100AA0004FF400512846FFF767FC00224FF48041C5
:100AB0002846FFF761FC4FF40046002231462846E5
:100AC000FFF75AFC0520FFF755FB0D48C16801F4FC
:100AD0007F422243C2600520FFF74CFB01223146D2
:100AE0002846FFF749FC0520FFF744FB314628461E
:100AF000BDE870400022FFF73FBC0000001001403D
:100B0000000801402DE9F04385B000252C480095F0
:100B1000019502950395816941F010018161816918
:100B200001F010010491816941F020018161816926
:100B300001F020010491816941F004018161816922
:100B400001F004010491816941F00801816180692B
:100B50001C4F00F008004FF460440490002221462E
:100B60003846FFF709FCDFF860800022FF2140468D
:100B7000FFF702FC0122DFF8549056023146484646
:100B8000FFF7FAFB00940124CDE901456946384698
:100B90000394FFF701FBFF208DE8310069464046D2
:100BA0000394FFF7F9FA0320CDE90240CDE9006490
:100BB00069464846FFF7F0FA05B0BDE8F08300004B
:100BC000001002400010014000080140000C0140EC
:100BD0000C4810B50A4901604FF4E1314160002131
:100BE00081600C22C160C0E904128161C161FFF71C
:100BF000D9FE002803D0BDE81040FFF7B9BA10BDF8
:100C00000038014010000020FEE7FEE77047704703
:100C1000FFF7BEBB30B58FB028216846FFF789FAD1
:100C200014210AA8FFF785FA01210804CDE9001074
:100C30000024029402250491CDE907504FF4E010FE
:100C400009906846FFF70AFD08B172B6FEE70F206B
:100C5000CDE90A054FF48060CDE90C4002210AA8D5
:100C60000E94FFF71FFC002801D072B6FEE70FB00C
:100C700030BD704770B5044600680169E26821F430
:100C80004051114301612169A0680843616908432B
:100C90002168CA6841F20C639A430243CA60206823
:100CA0004169A26921F44071114341611E492068E4
:100CB000884202D1FFF79CFC01E0FFF789FC00EBC2
:100CC000C00101EB0012606864218000B2FBF0F308
:100CD000B3FBF1F36FF018067343B2FBF0F5B2FB10
:100CE000F0F605EB8305322303EB0515B5FBF1F5B3
:100CF000B6FBF1F605F0F00505EB0615B2FBF0F6D4
:100D0000B2FBF0F0B0FBF1F06FF01802504306EBCD
:100D1000800003EB0010B0FBF1F0216800F00F0041
:100D20002844886070BD000000380140FEE70907D4
:100D3000090E002804DB00F1E02080F80014704761
:100D400000F00F0000F1E02080F8141D704702E071
:100D500008C8121F08C1002AFAD170477047002046
:100D600001E001C1121F002AFBD17047FFF718FBF9
:100D7000FFF750FFFFF7C6FEFFF72AFFFFF77DFEE4
:100D8000FEE7010202030405060708090A0B0C0D21
:100D90000E0F10100000000000000000010203040C
:100DA000060708090000000001020304CC0D00083A
:100DB00000000020100000004E0D0008DC0D0008AF
:100DC00010000020480400005E0D00080100000033
:0C0DD000100000000000000000127A007B
:04000005080000ED02
:00000001FF
