:020000040800F2
:10000000602C002001010008FB1800085F160008A2
:10001000F918000867020008AD1D00080000000084
:10002000000000000000000000000000FF180008B1
:100030009F02000800000000FD18000801190008D8
:100040001B0100081B0100081B0100081B01000820
:100050001B0100081B0100081B0100081B01000810
:100060001B0100081B0100081B0100081B01000800
:100070001B010008690200081B0100081B010008A1
:100080001B0100081B0100081B0100081B010008E0
:100090001B0100081B0100081B0100081B010008D0
:1000A0001B0100081B0100081B0100081B010008C0
:1000B0001B0100081B0100081B0100081B010008B0
:1000C0001B0100081B0100081B0100081B010008A0
:1000D0001B0100081B0100081B010008651D00082A
:1000E0001B0100081B0100081B010008DFF80CD0F1
:1000F00000F06CF8004800479D220008602C0020AA
:100100000648804706480047FEE7FEE7FEE7FEE7B1
:10011000FEE7FEE7FEE7FEE7FEE7FEE77D190008E3
:10012000ED000008202A04DB203A21FA02F0002129
:10013000704721FA02F3D040C2F1200291400843F7
:1001400019467047D2B201E000F8012B491EFBD2DC
:1001500070470022F6E710B513460A4604461946D2
:10016000FFF7F0FF204610BD2DE9F05F05460020A7
:1001700092469B4688460646814640241BE0284618
:10018000414647462246FFF7CDFF53465A46C01A1E
:10019000914110D311461846224600F029F82D1A35
:1001A00067EB01084F4622460120002100F020F8AD
:1001B00017EB00094E41201EA4F10104DFDC484684
:1001C00031462A464346BDE8F09F0000064C074DE5
:1001D00006E0E06840F0010394E807009847103417
:1001E000AC42F6D3FFF786FF3823000858230008F7
:1001F000202A04DB203A00FA02F1002070479140E7
:10020000C2F1200320FA03F3194390407047000025
:1002100070B5044600688168C943C90717D1816871
:1002200021F00101816000F003FC05460AE000BFF7
:1002300000F0FEFB401B022804D920688068C04300
:10024000C00706D020688068C043C007F0D00020F7
:1002500070BDA06A40F01000A062E06A40F00100AA
:10026000E062012070BDFEE7014800F0DBB900004C
:100270001828002030B590F840500124AC40C56BE0
:100280006C60046863604368102B036803D0996056
:100290000068C26030BD9A600068C16030BD7047C0
:1002A00072B6FEE7F8B50024009490F824202546A5
:1002B000012A12D0012280F824204A681F23072A2D
:1002C0000DD20668776B521E02EB820293409F4369
:1002D0000B6893401F43776319E00220F8BD06685E
:1002E0000D2A0AD2376BD21F02EB820293409F4342
:1002F0000B6893401F43376309E0F76A0D3A02EB3E
:10030000820293409F430B6893401F43F7620A6841
:10031000072306680A2A0AD3F7680A3A02EB420260
:1003200093409F438B6893401F43F76008E0376911
:1003300002EB420293409F438B6893401F43376117
:100340000A68102A01D0112A20D1124B02689A4261
:1003500017D193681B0219D4936843F40003936088
:100360000968102912D10C490C4A0968B1FBF2F155
:1003700001EB8101490000E0491E00910029FBD1F9
:1003800004E0816A41F020018162012480F8245058
:100390002046F8BD002401401000002040420F001C
:1003A0002DE9F0414FF0000704003D467ED0A06AE1
:1003B000002628B9E66284F82460204600F07EF822
:1003C0002046FFF725FFA16AC90600D420B1A06A24
:1003D00040F01000A06269E0A16A21F4885141F068
:1003E0000201A1626268E169237B0A4347EA430193
:1003F0000A43A1684FF48077B94209D0012907D098
:100400005FF0000194F814C0BCF1010F02D00AE0C3
:100410003946F7E7F3B1A36A43F02003A362E36A26
:1004200043F00103E3622368D3F804C02CF4694C61
:100430004CEA010CC3F804C021688B68DFF870C077
:1004400003EA0C0313438B60A168B9420BD0012966
:1004500009D00CE0DFF85CC0A3690CEB43330B431D
:1004600043F40061DFE7218A0D05A5F580152168B9
:10047000CB6A23F470032B43CB62216889680E4B4F
:100480001940914208D1E662A16A21F0020141F0CF
:100490000101A162BDE8F081A06A20F0020040F0F5
:1004A0001000A062E06A40F00100E0620120F1E784
:1004B000FDF7E1FF00E0FFFFFE0E1FFF10B586B065
:1004C000002100910191029103911A4C03681A498D
:1004D00003221A48A34211D18B6943F400738B6144
:1004E0008B6903F4007304938B6943F008038B61F9
:1004F000896901F008010491012113E0104CA34225
:1005000015D18B6943F480638B618B6903F480633D
:1005100004938B6943F008038B61896901F008013A
:1005200004910221CDE90012694600F08BF906B072
:1005300010BD00000024014000100240000C0140EA
:100540000028014010B590F821100022022905D0A2
:100550000421816380F82020012010BD01680B6810
:1005600023F00E030B6001680B6823F001030B609E
:1005700090F84030C46B012101FA03F3636080F806
:10058000211080F82020104610BD000010B590F812
:1005900021100024022903D00421816301243DE0BD
:1005A00001680A6822F00E020A6001680A6822F0F7
:1005B00001020A601A4A0168914201D1012121E039
:1005C000174A1432914201D110211BE0144A2832FB
:1005D000914201D1891515E0114A3C32914201D175
:1005E00089140FE00E4A5032914202D14FF480310B
:1005F00008E00B4A6432914202D14FF4801101E0CD
:100600004FF08071064A083A5160012180F82110AC
:10061000002180F82010416B01B18847204610BDB1
:10062000080002402DE9F05FC16B0C6801680B689F
:10063000D0F840C0042202FA0CF2494DDFF824A1A0
:10064000494E4A4FDFF828B1DFF828E122422CD08A
:100650005A072AD50A68920603D40A6822F00402CF
:100660000A600168A94201D1042219E0514501D173
:10067000402215E0B14202D14FF4806210E0B9424D
:1006800002D14FF480420BE0594502D14FF4802251
:1006900006E0714502D14FF4800201E04FF0806224
:1006A0002F4908394A60C16A3BE04FF0020808FA56
:1006B0000CF818EA040F4FF000094FF0010235D092
:1006C0005FEA837832D50B689B0605D40B6823F06C
:1006D0000A030B6080F821200168A94201D102229F
:1006E00019E0514501D1202215E0B14202D14FF469
:1006F000007210E0B94202D14FF400520BE05945AC
:1007000002D14FF4003206E0714502D14FF40012DD
:1007100001E04FF00072124908394A6080F82090D9
:10072000816A00291AD0BDE8F05F0847082505FA5C
:100730000CF5254212D01B0710D50B6823F00E03D1
:100740000B6090F84010C36B02FA01F159608263AC
:1007500080F8212080F82090016BE2E7BDE8F09F4F
:10076000080002401C0002403000024044000240E9
:10077000580002406C00024030B528B308C8134945
:1007800014221944B1FBF2F18900C163104981635D
:10079000022141771A6843F6F0718A43D0E90014C8
:1007A0002143D0E902452C43214304692143446994
:1007B00021438469214311431960002141630122CF
:1007C00042770177084630BD012030BDF8FFFDBFFC
:1007D0000000024070B5044690F820000025012872
:1007E0000CD0012084F8200094F821600020012E14
:1007F00006D084F820000225284670BD022070BD76
:10080000022684F82160A0632068066826F00106AD
:1008100006602046FFF72EFDE06A00282068016888
:1008200002D041F00E0106E021F0040101602068D1
:10083000016841F00A0101602068016841F001018E
:100840000160D9E72DE9F84FDFF8B8910024A9F14C
:10085000040B23460F2709F1040AABF1040EC9E08B
:100860000125A5402A40AA427DD1674ED1F804C097
:10087000ACEB0608B44532D014DCBCF1030F3AD01F
:1008800009DCBCF1000F2AD0BCF1010F1CD0BCF177
:10089000020F31D11DE0BCF1110F17D0BCF1120FC6
:1008A0002AD119E0B8F5881F19D006DCB8F5803FC9
:1008B00015D0B8F5801F1FD111E0B8F5001F0ED07C
:1008C000B8F5041F18D10AE0CB6815E0CB681B1DF2
:1008D00012E0CB6808330FE0CB680C330CE08B6878
:1008E0002BB1012B4FF0080303D0456104E0042332
:1008F00002E0056100E00023FF2A01D8064601E07E
:1009000000F104064FEA840501D9A5F12005D6F8C7
:10091000008007FA05FC28EA0C0803FA05F548EA06
:100920000508C6F800804D68ED0062D5374DAE6908
:1009300046F00106AE61AD6924F0030605F001053D
:100940000095334D06EB050CDCF80850A607360F72
:1009500007FA06F825EA0805DFF8B880404503D114
:100960004FF0000817E044E0DFF8AC80404502D1CA
:100970004FF001080FE0DFF8A480404502D14FF0AE
:10098000020808E0DFF89880404502D14FF00308E4
:1009900001E04FF0040808FA06F848EA0508CCF828
:1009A00008804D68D9F80060ED024D4601D5164328
:1009B00000E096432E604D68DAF80060AD025546BF
:1009C00001D5164300E096432E604D68DBF80060C9
:1009D000AD035D4601D5164300E096432E604D6899
:1009E000DEF80060ED03754601D5164300E096433E
:1009F0002E60641C0D682A46E5407FF431AFBDE8E7
:100A0000F88F00000804014000001110001002409F
:100A10000000014000080140000C014000100140AE
:100A2000001401400AB1016170470904FBE70000AE
:100A30000148806870470000040000200248816877
:100A4000027811448160704704000020074810B507
:100A5000016841F010010160032000F075F80F20DB
:100A600000F006F800F024F8002010BD002002403D
:100A700070B50D4D04464FF47A712878B1FBF0F053
:100A80000A490968B1FBF0F000F052FB48B9102C9C
:100A900007D200222146501E00F036F800206C607C
:100AA00070BD012070BD0000040000201000002077
:100AB0000C4808B5816941F001018161816901F04B
:100AC00001010091C16941F08051C161C06900F02C
:100AD000805000900448416821F0E06141F00071CD
:100AE000416008BD0010024000000140002809DB01
:100AF00000F01F02012191404009800000F1E02038
:100B0000C0F8001170470000F0B40E4B1B680C4693
:100B1000C3F30223C3F10705042D00D90425191DD1
:100B2000072901D2002300E0DB1E012606FA05F1A9
:100B3000491E214099409E40761E16403143F0BC2C
:100B400001F046B90CED00E0064900F00702086824
:100B50004FF6FF03184040EA0220034A10430860A2
:100B6000704700000CED00E00000FA052DE9F843A5
:100B700005460078354CC00754D0E0690026C00017
:100B800008D4E06940F08050E061E069012600F09F
:100B9000805000902E480168C90512D40168804633
:100BA00041F480710160FFF743FF074605E000BF95
:100BB000FFF73EFFC01B642823D8D8F80000C0050B
:100BC000F6D5206A10F4407021D0A98801F4407154
:100BD00081421CD0206A1F49012220F440700A6023
:100BE00000220A602062C00711D0FFF721FF0746EC
:100BF00041F2883808E000BFFFF71AFFC11B4145EA
:100C000002D90320BDE8F883206A8007F4D5206A62
:100C1000696820F44070084320621EB1E06920F04A
:100C20008050E0612878800705D56068A96820F4C5
:100C30004040084360602878C00605D56068E968D0
:100C400020F48000084360600020DBE700100240D1
:100C500000700040400442422DE9F0470F46050075
:100C600061D0434E306800F00700B84209D23068C6
:100C700020F0070038433060306800F00700B842C9
:100C800051D128683B4C810712D5400703D56068D5
:100C900040F4E06060602878000703D5606840F4A5
:100CA000605060606068A96820F0F00008436060F0
:100CB0002878C00728D06868012810D02168022849
:100CC00010D0890700292EDA616821F00301014361
:100CD0006160FFF7ADFE804641F288390DE0216882
:100CE0008903EFE78901EDE7FFF7A2FEA0EB08011A
:100CF000494502D90320BDE8F0876068696800F0C3
:100D00000C00B0EB810FEFD1306800F00700B84263
:100D10000BD9306820F0070038433060306800F0AD
:100D20000700B84201D00120E5E72878400705D543
:100D30006068E96820F4E060084360602878000794
:100D400006D56068296920F4605040EAC1006060FF
:100D500000F038F86168084AC1F30311515CC840DB
:100D60000649086006480068FFF782FE0020C2E7D7
:100D700000200240001002401E2300081000002046
:100D8000080000200448054900684968044AC1F386
:100D90000221515CC8407047100000200010024042
:100DA0002E2300080448054900684968044AC1F335
:100DB000C221515CC8407047100000200010024062
:100DC0002E2300080E4A51680E4801F00C03042B34
:100DD00011D0082B0FD10C48C1F38343C903C05C69
:100DE0000AD55168084AC1F34041921E515C054A38
:100DF0005043B0FBF1F0704704494843704700008E
:100E00000010024000127A000E23000800093D0085
:100E10002DE9F84F040070D02078C04DC00749D0AC
:100E20006868C0F38100012807D06868C0F38100BA
:100E3000022809D16868C00306D52868800339D51F
:100E400060680028E7D035E06068B0F5803F0BD0DF
:100E500010B1B0F5A02F11D0286820F480302860A0
:100E6000286820F4802002E0286840F48030286060
:100E7000606890B1FFF7DCFD06460AE0286840F4A0
:100E800080202860F0E700BFFFF7D2FD801B6428B8
:100E900073D828688003F7D50CE0FFF7C9FD064634
:100EA00005E000BFFFF7C4FD801B6428F0D8286868
:100EB0008003F7D420789A4E80074FF001094FF055
:100EC000000839D5686810F00C0F07D06868C0F3C7
:100ED0008100022809D16868C00306D42868800709
:100EE00014D52069012808D110E02069B0B1C6F8F6
:100EF0000090FFF79DFD074605E00AE1FFF798FD2A
:100F0000C01B0228C4D828688007F7D52868616903
:100F100020F0F80040EAC10028600DE0C6F800802B
:100F2000FFF786FD074604E0FFF782FDC01B02289D
:100F300023D828688007F7D4207800072CD5794873
:100F4000A169D9B1C0F80090FFF772FD074604E02F
:100F5000FFF76EFDC01B02280FD8686A8007F7D51F
:100F600071484FF4FA510068B0FBF1F0009000BFF7
:100F70000098411E0091FAD20EE080E0C0F8008097
:100F8000FFF756FD074604E0FFF752FDC01B02289D
:100F900075D8686A8007F7D42078400760D5E8697B
:100FA0000027C00008D4E86940F08050E861E86993
:100FB000012700F0805000905C480168C90513D4F7
:100FC0000168834641F480710160FFF731FD82467C
:100FD00006E000BFFFF72CFDA0EB0A0064284ED806
:100FE000DBF80000C005F5D5E06801280AD008B19B
:100FF000052813D0286A20F001002862286A20F012
:10100000040002E0286A40F001002862E06841F232
:10101000883B98B1FFF70CFD82460BE0286A40F050
:1010200004002862EEE700BFFFF702FDA0EB0A0113
:1010300059455AD8286A8007F6D50CE0FFF7F8FC26
:10104000824605E0FFF7F4FCA0EB0A0159454CD8B5
:10105000286A8007F6D41FB1E86920F08050E86163
:10106000E06988B36968C1F38101022944D002288C
:10107000C6F8608004D0FFF7DBFC044638E034E0BB
:10108000FFF7D6FC074604E0FFF7D2FCC01B02289E
:101090002BD828688001F7D4206AB0F5803F05D1AD
:1010A0006868A16820F4003008436860D4E908014A
:1010B0000843696821F4741108436860C6F86090B9
:1010C000FFF7B6FC044606E025E000BFFFF7B0FCE2
:1010D000001B022809D828688001F7D51BE000BF53
:1010E000FFF7A6FC001B022802D90320BDE8F88FF9
:1010F00028688001F4D40EE00128F7D06868226ADD
:1011000000F48031914204D1616A00F47010884289
:1011100001D00120EAE70020E8E7000000100240CB
:101120000000424280044242100000200070004053
:1011300010B5401EB0F1807F01D3012010BD4FF0EB
:10114000E02460610F21601700F042FE0020A061E2
:1011500007202061002010BD704710B504460068CC
:10116000406994F84110C0F3C010212911D180B119
:101170002068143050E8001F21F0800140E8001280
:10118000002AF5D1A06B08B1FFF7DCF9204600F08A
:101190009CFC2068406994F84210C0F3801022291A
:1011A00011D180B12068143050E8001F21F04001B7
:1011B00040E80012002AF5D1E06B08B1FFF7C2F950
:1011C000204600F05BFC002010BD7047F8B50168B8
:1011D00004460868CA684B6910F00F0F4FF000050D
:1011E00059D003F0010602F49077374365D0C10768
:1011F00005D0D10503D5616C41F00101616441075F
:1012000005D5D90703D0616C41F002016164810703
:1012100005D5D90703D0616C41F004016164010771
:1012200007D502F02001314303D0616C41F0080181
:101230006164616C00293AD0800604D5900602D51D
:10124000204600F050FC20684069616CC0F38010BB
:10125000090700D460B3204600F010FC2068406904
:10126000400621D52068143050E8001F21F04001CD
:1012700040E80012002AF5D1E06BA8B16D49416346
:10128000E06BFFF783F9002811D0E06B416B01B0F0
:10129000BDE8F040084783060FD593060DD52046DC
:1012A000BDE8F84000F01FBC2046FFF78EFFF8BDF8
:1012B0002046FFF78AFF6564F8BD266B2023012EC8
:1012C0007CD1C6067AD5D60678D5086848680090DD
:1012D00048694FF00206400640D5E16B0868406857
:1012E0000004000CE8D0A28D8242E5D9E08588692F
:1012F00020282DD020680C3050E8001F21F4807188
:1013000040E80012002AF5D12068143050E8001F90
:1013100021F0010140E80012002AF5D120681430C4
:1013200050E8001F21F0400140E80012002AF5D1EA
:1013300084F84230256320680C3050E8001F21F00B
:10134000100140E80012002AF5D1E06BFFF7FAF82F
:101350006663A08DE18D401A81B22AE0A08DE18DF7
:10136000401A81B2E08D0028A6D00029A4D02268BE
:101370000C3252E8000F20F4907042E80007002F72
:10138000F5D12068143050E8002F22F0010240E827
:101390000027002FF5D184F84230256320680C30F7
:1013A00050E8002F22F0100240E80023002BF5D176
:1013B00066632046FFF7D0FEF8BDFFE705062BD594
:1013C000150629D594F841002128F5D1A068B0F57B
:1013D000805F01D12069B0B1206A411C216221687F
:1013E00000784860E08C401E0004000CE084E3D1EB
:1013F0002068C16821F08001C1602068C16841F0A7
:101400004001C160D8E7206A0088C0F30800486046
:10141000206A801C2062E5E74006CDD55006CBD57A
:10142000CA68204622F04002CA6084F8413000F0C9
:1014300015F9C1E77F19000870B5040004D094F8CD
:101440004100002510B106E0012070BD84F8405035
:10145000204600F023F8242084F841002068C16869
:1014600021F40051C160204600F09EFB2068016914
:1014700021F4904101612068416921F02A01416114
:101480002068C16841F40051C1606564202084F87F
:10149000410084F842006563002070BDF0B585B05E
:1014A0000024009401940294039406460368344F88
:1014B0000220344903224502BB4221D18B6943F407
:1014C00080438B618B6903F4804304938B6943F001
:1014D00004038B6189692C4E01F00401049101021F
:1014E000CDE90010039269463046FFF7ABF9CDE92C
:1014F0000054694630460294FFF7A4F905B0F0BDE8
:10150000224FBB42FAD1CB6943F48023CB61CB6934
:1015100003F4802304938B6943F008038B6189698A
:1015200001F00801CDE90321CDE90050184D6946CD
:101530002846FFF787F9E814CDE9000469462846F4
:101540000294FFF77FF9144D1248C5E9000480208A
:10155000C5E902402C616C61AC612846EC61FFF783
:101560000BF908B1FEF79CFEF56300221146272017
:101570006E62FFF7C9FA2720FFF7B8FABEE700004E
:1015800000380140001002400008014000480040BF
:10159000000C0140300002401828002090F8423032
:1015A000202B01D00220704721B11AB10023036320
:1015B00000F056BB01207047704770472DE9F84393
:1015C000044690F84100984616460D46202802D061
:1015D0000220BDE8F88385B17EB10020606421203F
:1015E00084F84100FFF724FAA6848146E684A068C7
:1015F0002027B0F5805F02D003E00120E9E72069F1
:1016000010B12E4600250EE000260CE08021204679
:1016100000F06EFBA8B9C6B116F8010B216848604E
:10162000E08C401EE084E08C4B464FF00002CDF889
:1016300000800028EAD14FF04001204600F058FB1E
:1016400040B184F841700320C3E735F8020BC0F3C2
:101650000800E3E784F841700020BAE77047FEE72E
:101660003EB5002411480094019402940E49846010
:10167000016004730475012505614FF46021446025
:10168000C161FEF78DFE08B1FEF70AFE0820CDE924
:101690000005694602940548FEF704FE002801D0C3
:1016A000FEF7FEFD3EBD00000024014018000020B2
:1016B0003EB5002411480094019402940E498460C0
:1016C000016004730475012505614FF460214460D5
:1016D000C161FEF765FE08B1FEF7E2FD0920CDE924
:1016E0000005694602940548FEF7DCFD002801D09C
:1016F000FEF7D6FD3EBD0000002801404800002056
:10170000094808B5416941F0010141614069002281
:1017100000F00100009011460D20FFF7F5F9BDE83B
:1017200008400D20FFF7E2B9001002402DE9F04318
:1017300085B000254948009501950295039581697A
:1017400041F010018161816901F01001049181690A
:1017500041F020018161816901F0200104918169DA
:1017600041F004018161816901F004010491816902
:1017700041F0080181618069394F00F008004FF4A1
:1017800060460490002231463846FFF74BF9DFF8F7
:10179000D4800022FF214046FFF744F9DFF8C890CB
:1017A000012241F2F8314846FFF73CF901224FF49B
:1017B00001414046FFF736F901240096CDE9014585
:1017C000694638460394FFF73DF8FF208DE8310065
:1017D000694640460394FFF735F82003CDE900043D
:1017E0000294694648460394FFF72CF81F48009678
:1017F000CDE9010469464846FFF724F82002022596
:101800008DE83100694640460394FFF71BF8E0037A
:10181000CDE900040326CDE9024669464046FFF7BC
:1018200011F818208DE83100694648460394FFF707
:1018300009F84FF4F0708DE8710069464846FFF7EB
:1018400001F86002CDE90004CDE902466946484648
:10185000FEF7F8FF05B0BDE8F0830000001002407D
:101860000010014000080140000C01400000211060
:101870000C4810B50A4901604FF4E1314160002184
:1018800081600C22C160C0E904128161C161FFF76F
:10189000D3FD002803D0BDE81040FEF701BD10BD08
:1018A000003801408827002010B5114C0F480C214A
:1018B00020604FF4E13060600020A060E060C4E987
:1018C0000401A061E0612046FFF7B6FD08B1FEF714
:1018D000E7FC2068C16841F01001C160BDE810401C
:1018E00042F2107203490248FFF758BE0048004018
:1018F000D027002078000020FEE7FEE77047704701
:10190000FFF79CB830B593B028216846FEF721FC5C
:1019100014210AA8FEF71DFC002501200F95109543
:101920001195010412958DE8230004904FF4E01006
:10193000CDE90810022407946846FFF769FA08B158
:1019400072B6FEE70AA90F2081E831004FF48060EB
:10195000CDE90D0502210AA8FFF77EF908B172B69C
:10196000FEE74FF4004011900F940FA8FFF7FEF828
:10197000002801D072B6FEE713B030BD704710B535
:10198000406A0021C185C184FFF71FFC10BD70B5FE
:10199000446A2068406994F84110C0F3C0100025E3
:1019A000212904D118B1E584204600F08EF8206882
:1019B000406994F84210C0F38010222904D118B174
:1019C000E585204600F05AF8606C40F01000606435
:1019D0002046FFF7FAFB70BD10B50146406A096862
:1019E00009684FF0000289062ED4C28501680C31C7
:1019F00051E8003F23F4807341E80034002CF5D116
:101A00000168143151E8003F23F0010341E800343C
:101A1000002CF5D10168143151E8003F23F0400358
:101A200041E80034002CF5D1202180F84210016BF0
:101A3000012909D101680C3151E8003F23F010035E
:101A400041E80034002CF5D14263016B012902D03A
:101A5000FFF7B2FD10BD818DFFF77EFB10BD10B505
:101A6000406A01214163016B012902D0FFF7A5FD06
:101A700010BD818D4908FFF76FFB10BD01680C3167
:101A800051E8002F22F4907241E80023002BF5D199
:101A90000168143151E8002F22F0010241E80023CF
:101AA000002BF5D1016B012909D101680C3151E8F6
:101AB000002F22F0100241E80023002BF5D1202155
:101AC00080F8421000210163704701680C3151E831
:101AD000002F22F0C00241E80023002BF5D1202185
:101AE00080F84110704708B590F84210222901D0C3
:101AF000022008BD82684FF480539A4201D10169E7
:101B000021B1816A9A421BD04AB10AE00268816A17
:101B10005268C2F308020A80816A891C08E00269DF
:101B200072B10268526802F07F020A70816A491C31
:101B30008162C18D491E0904090CC18503D01BE0D7
:101B400002685268F1E70168CA6822F02002CA60A0
:101B50000168CA6822F48072CA6001684A6922F08A
:101B600001024A61202180F8421000214163026B8A
:101B7000012A03D0FFF720FD002008BD01630168A2
:101B80000C3151E8002F22F0100241E80023002B15
:101B9000F5D101680A68D20602D50A684968009141
:101BA000818DFFF7D9FAE7E770B50446006801694F
:101BB000E26821F44051114301612169A0680843A2
:101BC000616908432168CA6841F20C639A43024381
:101BD000CA6020684169A26921F4407111434161E2
:101BE0001E492068884202D1FFF7DCF801E0FFF7C8
:101BF000C9F800EBC00101EB0012606864218000AD
:101C0000B2FBF0F3B3FBF1F36FF018067343B2FBD2
:101C1000F0F5B2FBF0F605EB8305322303EB051577
:101C2000B5FBF1F5B6FBF1F605F0F00505EB061591
:101C3000B2FBF0F6B2FBF0F0B0FBF1F06FF018027F
:101C4000504306EB800003EB0010B0FBF1F021687D
:101C500000F00F002844886070BD0000003801408B
:101C600038B58162044682850020134660642222D2
:101C700084F84220E56B1B4AAA62E56B1A4AEA62C5
:101C8000E56B1A4A2A63E26B50630A462168E06BEF
:101C9000091DFEF79FFD20680168406800902069DB
:101CA00048B120680C3050E8001F41F4807140E8D2
:101CB0000012002AF5D12068143050E8001F41F0CE
:101CC000010140E80012002AF5D12068143050E8E4
:101CD000001F41F0400140E80012002AF5D1002029
:101CE00038BD0000D91900085F1A00088F190008D4
:101CF0002DE9F843984617460D460446089E24E011
:101D0000701C22D0FEF794FEA0EB0800B0421AD857
:101D1000CEB12068C168490717D5802D15D0402D58
:101D200013D00168C94309070FD401680025406832
:101D300000902046FFF7A2FE0820606484F840501F
:101D40000120BDE8F8830320FBE72068006835EA3E
:101D5000000004D00020B842D2D00020F1E70120DA
:101D6000F9E700000D4808B500680168C943C906D5
:101D70000FD40168406800900848FFF7EEF9084862
:101D8000006840680749C0F110000870064901204A
:101D90000870BDE808400148FFF718BAD0270020B6
:101DA000182800200000002001000020FEE70000AD
:101DB0000FB4054B10B503A9044A029800F028F8A7
:101DC00010BC5DF814FB0000752200081400002010
:101DD0000907090E002804DB00F1E02080F8001458
:101DE000704700F00F0000F1E02080F8141D7047EC
:101DF00002E008C8121F08C1002AFAD170477047D4
:101E0000002001E001C1121F002AFBD17047000031
:101E10002DE9FF4F8DB00F460546002606E0252828
:101E20000BD0DDE90F1290476D1C761C2878002836
:101E3000F5D111B03046BDE8F08F0024A246A1468E
:101E40000122EC4900E0044315F8013F203B02FA6F
:101E500003F00842F7D128782A2810D06FF02F021B
:101E60002878A0F13001092914D80AEB8A0102EB85
:101E7000410144F0020400EB010A6D1CF0E701CFC0
:101E80005FEA000A03D544F40054CAF1000A44F0A2
:101E900002046D1C28782E2817D115F8010F44F084
:101EA00004042A280ED06FF02F022878A0F1300108
:101EB00009290AD809EB890102EB410100EB01096C
:101EC0006D1CF2E757F8049B6D1C28786C280FD026
:101ED00006DC4C2817D068280DD06A2814D104E0FD
:101EE000742810D07A280FD10DE044F400140AE0D1
:101EF00044F4801401E044F440146978814202D132
:101F000004F580146D1C6D1C2A786E2A1FD00CDC21
:101F1000632A31D004DC002A8BD0582A11D1A3E0E7
:101F2000642A68D0692A0CD165E0732A2ED004DCBB
:101F30006F2A73D0702A04D19BE0752A6FD0782A5B
:101F40006ED01046DDE90F129047761C50E1C4F3C5
:101F50000250022806D0032809D0042801CF09D056
:101F6000066045E101CFF117C0E9006140E101CF12
:101F700006803DE106703BE117F8040B8DF8000088
:101F800000208DF80100EB46012003E057F804BB68
:101F90004FF0FF3061074FF0000102D40DE008F16F
:101FA0000101884649450FDA8045F8DB1BF8081027
:101FB0000029F4D108E008F1010188468142FADBEA
:101FC0001BF808100029F6D1DDE90F23AAEB080061
:101FD0008146214600F036F9304400EB080604E063
:101FE000DDE90F121BF8010B9047B8F10108F7D299
:101FF00021464846F7E00A21C4F302534FF0000B94
:102000000891022B04D001CFC117032B09D00AE09D
:10201000FF1D27F00707F7E8020108E032E01FE0A4
:1020200020E000B2C117042B01D140B2C117031E3A
:1020300071F1000307DA4FF0000CD0EB0C006CEBF1
:1020400001012D2302E0230504D52B238DF8243034
:10205000012303E0E30701D02023F7E7984658E087
:102060000A2110E010210EE010204FF0000B089024
:102070000CE010214FF0000B44F004044FF008096D
:10208000089103E008214FF0000B0891C4F30253BC
:10209000022B04D001CF0021032B06D006E0FF1D48
:1020A00027F00707F7E8020103E080B2042B00D114
:1020B000C0B24FF0000823072BD5702A07D0DDF8F7
:1020C00020C08CF0100C5CEA0B0C05D00EE0402315
:1020D0008DF82430012308E050EA010306D03023B4
:1020E0008DF824308DF8252002239846DDF820C095
:1020F0008CF0080C5CEA0B0C0BD150EA010301D107
:10210000630706D530238DF824304FF00108A9F17C
:102110000109582A04D038A20B9208AA0A920BE0AF
:102120003AA2F9E75B46089AFEF71EF80B9B9B5C08
:102130000A9A521E0A92137050EA0102F2D10A98CA
:10214000ADEB000000F1200B600702D524F48034D1
:1021500001E04FF00109D94502DDA9EB0B0000E0D9
:10216000002000EB0B0141440890AAEB010AE003B8
:1021700006D4DDE90F232146504600F063F80644FB
:102180004FF0000908E009A911F80900DDE90F1274
:10219000904709F10109761CC145F4DBE0030CD539
:1021A000DDE90F232146504600F04CF8064404E0D8
:1021B000DDE90F1230209047761C0899481E0890E0
:1021C0000029F5DC08E00A980A990078491C0A9170
:1021D000DDE90F129047761CBBF10001ABF1010B5A
:1021E000F1DC21465046DDE90F2300F019F80644E2
:1021F0006D1C1BE609280100303132333435363787
:102200003839616263646566000000003031323342
:1022100034353637383941424344454600000000E2
:102220002DE9F041044600251E461746880404D4D3
:1022300005E039462020B0476D1C641EF9D52846BC
:10224000BDE8F0812DE9F041044600251E46904688
:10225000C80301D5302700E02027880404D505E015
:1022600041463846B0476D1C641EF9D52846BDE886
:10227000F081000013B54FF0FF3301226946024898
:10228000FFF79CF900981CBD88270020024610210A
:102290000148FEF7C7BB0000000C01400026FEF716
:1022A000D5FBFFF72FFBFFF741FAFFF729FAFFF7FE
:1022B000DFFAFFF7D5F9FFF7FBF9FFF7F5FA002092
:1022C000FFF7E4FF64210B48FDF743FF0A4D0B4C79
:1022D00042F2107728780028FCD02E70217808A0D0
:1022E000FFF766FD26703A4602490748FFF756F9A0
:1022F000F0E700007800002001000020000000202E
:1023000025640D0A00000000D0270020010202030E
:102310000405060708090A0B0C0D0E0F101000002B
:102320000000000000000102030406070809000085
:1023300000000102030400005823000800000020F0
:1023400018000000F01D000870230008180000208D
:10235000482C0000001E00080000000001000000E2
:10236000100000000000000000127A0000000000D1
:04000005080000ED02
:00000001FF
