:020000040800F2
:10000000D02C002001010008672A00086F26000894
:10001000652A0008350900080930000800000000C2
:100020000000000000000000000000006B2A000833
:10003000CB0B000800000000692A00086D2A0008A8
:100040001B0100081B0100081B0100081B01000820
:100050001B0100081B0100081B0100081B01000810
:100060001B0100081B0100081B0100081B01000800
:100070001B010008950B00081B0100081B0100086C
:100080001B0100081B0100081B0100081B010008E0
:100090001B0100081B0100081B0100081B010008D0
:1000A0001B010008ED2A00081B0100081B010008C5
:1000B0001B0100081B0100081B0100081B010008B0
:1000C0001B0100081B0100081B0100081B010008A0
:1000D0001B0100081B0100081B010008C12F0008BC
:1000E000CD0B00081B0100081B010008DFF80CD035
:1000F00000F0A4FB00480047753A0008D02C00200F
:100100000648804706480047FEE7FEE7FEE7FEE7B1
:10011000FEE7FEE7FEE7FEE7FEE7FEE7E92A000866
:10012000ED000008202A04DB203A21FA02F0002129
:10013000704721FA02F3D040C2F1200291400843F7
:1001400019467047D2B201E000F8012B491EFBD2DC
:1001500070470022F6E710B513460A4604461946D2
:10016000FFF7F0FF204610BD30B505462A460B4686
:1001700012F8010B13F8014B08B1A042F8D01CB1E2
:10018000002802D06D1CF1E7284630BD30B504468A
:100190000020034600E05B1C934203D2E05CCD5C90
:1001A000401BF8D030BD2DE9FE4F804681EA0300A8
:1001B000C00F0C46009021F0004123F00045B8EB41
:1001C0000200A94105D24046214690461C460B46F6
:1001D000024623F00040104347D0270DC7F30A0022
:1001E000C3F30A510290401A019040286BDAC3F31E
:1001F000130040F4801B0098924620B10023D2EBFC
:10020000030A63EB0B0B01985946C0F140025046BC
:1002100000F02FFA06460D4650465946019A00F066
:1002200037FA10EB08006141002487EA115284EA92
:10023000E7731A4340D0009A62B3019A012A4FEA49
:10024000075215DC001B61EB02014FF0004202EA8D
:100250000752CDE90042001C41F5801132462B4681
:1002600000F06EFA03B0BDE8F08F40462146F9E792
:10027000001B61EB0201001C41F5801300185B417B
:100280002018A2F5001747EB030140EAD570B61914
:100290006D4111E06D084FEA360645EAC0754FEA38
:1002A0000752001B61EB0201001C41F58011490857
:1002B0004FEA30000019514132462B4603B0BDE8E9
:1002C000F04F00F02EBA0098012240000023D0EB3E
:1002D000020263EBE073009821464FEAE074B8EB4A
:1002E000000061EB0401E9E783F000435BE781F084
:1002F000004158E72DE9FE4F81EA030404F0004471
:1003000021F0004100944FF0000B23F0004350EA2D
:1003100001045ED052EA03045BD0C3F30A54C1F374
:100320000A552C44A4F2F3340194A0FB0254C1F307
:10033000130141F48011C3F3130343F4801301FB51
:10034000024400FB034E840A970A44EA815447EAB8
:100350008357A4FB076802958D0A05FB07854FEAC2
:10036000932C04FB0C542705029D4FEA065847EADC
:100370001637B5EB08056EEB070C870E920E47EAB1
:10038000811742EA8312A7FB0201B6EB0B0164EB73
:1003900000042B0D43EA0C335E1844EB1C50DA4684
:1003A0005146E7FB0201C5F313044FEA0B3343EA5E
:1003B00014534FEA0432019C43EA0603A4F10C04EF
:1003C0000294009CCDE900B400F0BAF903B0BDE896
:1003D000F08F00200146F9E72DE9F04D81EA030492
:1003E00004F0004B21F0004514464FF0000A23F0C2
:1003F000004150EA050220D054EA01021DD0C5F3A5
:100400000A570246C5F31303C1F31300C1F30A569A
:1004100040F4801543F48013A7EB0608101BD64662
:1004200008F2FD3873EB050002D308F1010801E082
:1004300092185B41B8F1000F03DA00200146BDE8D5
:10044000F08D00204FF48011064684460EE0171B05
:1004500073EB050705D3121B63EB050306434CEA58
:10046000010C49084FEA300092185B4150EA01073D
:10047000EDD152EA030012D082EA040083EA0501BA
:10048000084305D0101BAB4106D20122002306E031
:1004900000224FF0004302E06FF0010253101AEB0C
:1004A00006004CEB085110EB0A0041EB0B01BDE8D4
:1004B000F04D00F036B970B521F0004303430CD085
:1004C000C1F30A550024D5EB040564EB0403D617E9
:1004D000AD1AB34102DB0020014670BD201841EB8C
:1004E000025170BD0EB5C10F80EAE0700844CA0722
:1004F000002140F233438DE80E000A460B4600F01F
:100500001FF903B000BD0EB540F233410291002146
:10051000CDE900110A460B4600F012F903B000BD08
:1005200070B5C1F30A5201F000450024C1F3130174
:1005300040F2FF3341F480119A4201DA002070BD8D
:1005400040F233439A42A2F2334203DC5242FFF7B5
:10055000E9FD00E090402C43F1D0404270BD00F036
:10056000004230F000400AD0C10D01F56071C0F3C7
:10057000160042EA0151C2084007114370470020AB
:100580000146704701F0004330B421F0004150EAC9
:10059000010206D00A0DA2F56072C1F31301002A10
:1005A00002DC30BC00207047440F44EAC104C100A3
:1005B000E01830BC00EBC25000F07CB8002801DB32
:1005C000C0F10040002901DBC1F1004181427047C8
:1005D000002801DBC0F10040002901DBC1F100412E
:1005E0008842704730B50B46014600202022012486
:1005F00009E021FA02F59D4205D303FA02F5491BF1
:1006000004FA02F52844151EA2F10102F1DC30BD06
:100610002DE9F05F0546002092469B468846064637
:10062000814640241BE02846414647462246FFF7C4
:1006300079FD53465A46C01A914110D311461846C7
:10064000224600F016F82D1A67EB01084F462246A5
:100650000120002100F00DF817EB00094E41201E8B
:10066000A4F10104DFDC484631462A464346BDE892
:10067000F09F202A04DB203A00FA02F100207047A4
:100680009140C2F1200320FA03F3194390407047D0
:10069000202A06DBCB17203A41FA02F043EAE07346
:1006A00006E041FA02F3D040C2F120029140084333
:1006B000194670470029A8BF7047401C490008BF71
:1006C00020F00100704710B4B0FA80FC00FA0CF082
:1006D00050EA010404BF10BC704749B1CCF12004BA
:1006E00021FA04F411FA0CF118BF01212143084347
:1006F000A3EB0C01CB1D4FEA00614FEA102042BF73
:10070000002010BC704700EBC35010440029A4BF68
:1007100010BC7047401C490008BF20F0010010BC0D
:10072000704710B5141E73F1000408DA401C41F143
:10073000000192185B411A4301D120F0010010BD65
:100740002DE9F04D92469B4611B1B1FA81F202E0DB
:10075000B0FA80F220329046FFF78BFF04460F4636
:1007600040EA0A0041EA0B0153465A46084313D0B7
:10077000114653EA010019D0C8F140025046FFF774
:10078000D1FC05460E46504659464246FFF771FFDA
:10079000084305D0012004E020463946BDE8F08D2D
:1007A0000020054346EAE0762C4337430A98630568
:1007B000E40AA0EB08000022FD0A44EA47540A308C
:1007C00002D500200146E9E7010510196941DDE97C
:1007D000084500196941BDE8F04DA2E7C1F30A528E
:1007E000C1F3130140F2FF3341F480119A4202DA5F
:1007F00000200146704740F233439A42A2F233424E
:1008000002DC5242FFF78EBCFFF733BF30B5041E47
:1008100071F1000404DB4FF00044404264EB01013D
:10082000141E73F1000405DB1C464FF000435242D6
:1008300063EB0403994208BF904230BD064C074D5C
:1008400006E0E06840F0010394E8070098471034A0
:10085000AC42F6D3FFF74EFC2442000844420008A5
:1008600070B5044600688168C943C90717D181681B
:1008700021F00101816000F0B9FE05460AE000BFE9
:1008800000F0B4FE401B022804D920688068C043F1
:10089000C00706D020688068C043C007F0D00020A1
:1008A00070BDA06A40F01000A062E06A40F0010054
:1008B000E062012070BD0000F8B5002604460096F5
:1008C00000688168C943C9072DD0816841F00101E2
:1008D0008160164816490068B0FBF1F000E0401E48
:1008E00000900028FBD100F081FE054616E000BF15
:1008F00000F07CFE401B022810D920688068C043AD
:10090000C0070BD0A06A40F01000A062E06A40F07F
:100910000100E06284F824600120F8BD206880684E
:10092000C043C007E4D10020F8BD00002000002033
:1009300040420F00FEE7000010B5044601F052F8F7
:100940000349B0FBF1F16143491EFDD210BD000027
:1009500000093D0010B500F05DF8BDE810404FF40F
:100960007A7000F017BD000010B52820FFF7E4FFF3
:100970004FF40071034800F02FFE08B1002010BDB5
:10098000012010BD000C01401FB50A4B4FF400724E
:10099000012120B100200092CDE9010104E00320F3
:1009A000CDE90021CDE902106946184600F024FD8A
:1009B0001FBD0000000C014070B50D4D4FF40074D8
:1009C0002146284600F008FE0028F9D02820FFF72D
:1009D000B3FF2146284600F0FFFD002806D021463F
:1009E000284600F0F9FD0028F9D1012070BD000073
:1009F000000C014070B5002425466006040EFFF788
:100A0000DBFF08B144F001046D1CEDB2082DF4D3F6
:100A1000204670BDF0B599B0002502950395049568
:100A20000595142114A80695FFF793FB00F09EF896
:100A3000FFF79AFF00287AD03E4E4FF4007421460B
:100A4000304600F0C9FD0028F9D02146304600F0BC
:100A5000C3FD0028F9D100240DF10807FFF7CAFFF4
:100A60003855641CE4B2052CF8D39DF808209DF895
:100A700009309DF80A109DF80B00D4180F183C445B
:100A80009DF80C70BC4250D1CDE900102AA104A8F9
:100A900002F0BCFA002104AA084602F0B5FF2B4C74
:100AA0006068401C0A21606090FBF1F090B16560C5
:100AB0009DF80B109DF80A00CDE900019DF8093062
:100AC0009DF8082022A107A802F0A0FA0D2107A88E
:100AD00003F090F921789DF80A004FF48054E50066
:100AE000204F88420BD300220821304600F079FDC8
:100AF00000222146304600F074FD00220DE01A4825
:100B0000007820B901220821304600F06AFD012258
:100B10002146304600F065FD01222946384600F0A6
:100B200060FD012019B0F0BD01E00020FAE70220CD
:100B3000F8E70000000C014025642E2564252552AD
:100B4000482025642E256443000000002400002076
:100B500025642E2564252552482025642E256443CE
:100B60000D0A0000000801403F00002010B50020E1
:100B7000FFF70AFF00224FF40071054800F031FD35
:100B8000142000F007FCBDE810400120FFF7FCBE78
:100B9000000C0140014800F0EDBA00008828002058
:100BA00030B590F840500124AC40C56B6C600468CF
:100BB00063604368102B036803D099600068C260CB
:100BC00030BD9A600068C16030BD704710B54FF409
:100BD000005000F005FC4FF4804000F001FCBDE83F
:100BE00010404FF4004000F0FBBB72B6FEE700007F
:100BF000F8B50024009490F824202546012A12D04C
:100C0000012280F824204A681F23072A0DD2066893
:100C1000776B521E02EB820293409F430B68934016
:100C20001F43776319E00220F8BD06680D2A0AD237
:100C3000376BD21F02EB820293409F430B689340B5
:100C40001F43376309E0F76A0D3A02EB82029340D3
:100C50009F430B6893401F43F7620A6807230668A7
:100C60000A2A0AD3F7680A3A02EB420293409F43EA
:100C70008B6893401F43F76008E0376902EB42023C
:100C800093409F438B6893401F4337610A68102A43
:100C900001D0112A20D1124B02689A4217D19368D1
:100CA0001B0219D4936843F4000393600968102968
:100CB00012D10C490C4A0968B1FBF2F101EB810138
:100CC000490000E0491E00910029FBD104E0816A3F
:100CD00041F020018162012480F824502046F8BDB3
:100CE000002401402000002040420F000068C06C3A
:100CF000704700002DE9F0414FF0000704003D4629
:100D00007ED0A06A002628B9E66284F824602046D6
:100D100000F07EF82046FFF7A3FDA16AC90600D4C3
:100D200020B1A06A40F01000A06269E0A16A21F43D
:100D3000885141F00201A1626268E169237B0A43A4
:100D400047EA43010A43A1684FF48077B94209D0CA
:100D5000012907D05FF0000194F814C0BCF1010F25
:100D600002D00AE03946F7E7F3B1A36A43F0200363
:100D7000A362E36A43F00103E3622368D3F804C08B
:100D80002CF4694C4CEA010CC3F804C021688B6850
:100D9000DFF870C003EA0C0313438B60A168B9420B
:100DA0000BD0012909D00CE0DFF85CC0A3690CEB83
:100DB00043330B4343F40061DFE7218A0D05A5F5BA
:100DC00080152168CB6A23F470032B43CB62216822
:100DD00089680E4B1940914208D1E662A16A21F060
:100DE000020141F00101A162BDE8F081A06A20F09A
:100DF000020040F01000A062E06A40F00100E062F2
:100E00000120F1E7FDF7E1FF00E0FFFFFE0E1FFF0D
:100E100010B586B0002100910191029103911A4C06
:100E200003681A4903221A48A34211D18B6943F47B
:100E300000738B618B6903F4007304938B6943F037
:100E400008038B61896901F008010491012113E015
:100E5000104CA34215D18B6943F480638B618B697D
:100E600003F4806304938B6943F008038B61896901
:100E700001F0080104910221CDE90012694600F059
:100E8000BBFA06B010BD0000002401400010024073
:100E9000000C0140002801402DE9F84300270D46D1
:100EA0000446009700F0A2FB804620688168C905CF
:100EB00008D5A06A40F02000A06284F824700120C8
:100EC000BDE8F8834168C90503D4C06A10F4700F07
:100ED0002AD0022000F028FC3B490968B1FBF0F65B
:100EE0002068036939490B424FEA61014FEAA112B8
:100EF0001FD1C3684FEA611C13EA0C0F19D10369B3
:100F00000B4225D1C068104222D1142023E0681C76
:100F10000AD02DB100F06AFBA0EB0800A84203D96B
:100F200020680068800725D5206800688007EED516
:100F30002DE003690B4202D1C168114206D002695B
:100F400023490A4206D1C068084203D1542002E076
:100F5000292000E0FC204643009816E0681C11D0D0
:100F60002DB100F043FBA0EB0800A8420AD900987D
:100F7000B04207D2A06A40F00400A06284F8247056
:100F800003209DE70098401C0090B042E6D3216802
:100F90006FF012000860A06A40F40070A062206840
:100FA0008068C0F3424007280CD1207B50B9A06A6A
:100FB00020F48070A062A06AC00403D4A06A40F04C
:100FC0000100A06200207BE7200000202449922439
:100FD0004992240070B5044690F8240001280DD0F1
:100FE000012084F824002046FFF766FC02004FF041
:100FF000000005D084F82400104670BD022070BDAA
:10100000A16A40F20123994341F48071A1621F4D0E
:1010100023681F49AB4218D10E6816F4702F14D004
:10102000A66A46F48016A6620E68760505D5A66AFD
:1010300026F4005646F48056A662A66AF6040AD53F
:10104000E66A26F00606E66206E0A66A26F4801640
:10105000A6625E68E9E7E06284F824006FF00200AF
:10106000186020688368C3F34243072B05D1A84268
:1010700008D1096811F4702F04D0816841F48011FF
:101080008160B9E7816841F4A001F9E700280140D7
:101090000424014010B590F821100022022905D047
:1010A0000421816380F82020012010BD01680B68B5
:1010B00023F00E030B6001680B6823F001030B6043
:1010C00090F84030C46B012101FA03F3636080F8AB
:1010D000211080F82020104610BD000010B590F8B7
:1010E00021100024022903D00421816301243DE062
:1010F00001680A6822F00E020A6001680A6822F09C
:1011000001020A601A4A0168914201D1012121E0DD
:10111000174A1432914201D110211BE0144A28329F
:10112000914201D1891515E0114A3C32914201D119
:1011300089140FE00E4A5032914202D14FF48031AF
:1011400008E00B4A6432914202D14FF4801101E071
:101150004FF08071064A083A5160012180F8211051
:10116000002180F82010416B01B18847204610BD56
:10117000080002402DE9F05FC16B0C6801680B6844
:10118000D0F840C0042202FA0CF2494DDFF824A145
:10119000494E4A4FDFF828B1DFF828E122422CD02F
:1011A0005A072AD50A68920603D40A6822F0040274
:1011B0000A600168A94201D1042219E0514501D118
:1011C000402215E0B14202D14FF4806210E0B942F2
:1011D00002D14FF480420BE0594502D14FF48022F6
:1011E00006E0714502D14FF4800201E04FF08062C9
:1011F0002F4908394A60C16A3BE04FF0020808FAFB
:101200000CF818EA040F4FF000094FF0010235D036
:101210005FEA837832D50B689B0605D40B6823F010
:101220000A030B6080F821200168A94201D1022243
:1012300019E0514501D1202215E0B14202D14FF40D
:10124000007210E0B94202D14FF400520BE0594550
:1012500002D14FF4003206E0714502D14FF4001282
:1012600001E04FF00072124908394A6080F820907E
:10127000816A00291AD0BDE8F05F0847082505FA01
:101280000CF5254212D01B0710D50B6823F00E0376
:101290000B6090F84010C36B02FA01F15960826351
:1012A00080F8212080F82090016BE2E7BDE8F09FF4
:1012B000080002401C00024030000240440002408E
:1012C000580002406C00024030B528B308C81349EA
:1012D00014221944B1FBF2F18900C1631049816302
:1012E000022141771A6843F6F0718A43D0E900146D
:1012F0002143D0E902452C43214304692143446939
:101300002143846921431143196000214163012273
:1013100042770177084630BD012030BDF8FFFDBFA0
:101320000000024070B5044690F820000025012816
:101330000CD0012084F8200094F821600020012EB8
:1013400006D084F820000225284670BD022070BD1A
:10135000022684F82160A0632068066826F0010652
:1013600006602046FFF71CFCE06A00282068016840
:1013700002D041F00E0106E021F004010160206876
:10138000016841F00A0101602068016841F0010133
:101390000160D9E770B5044600F028F90546601CE5
:1013A00002D004480078044400F020F9401BA04219
:1013B000FAD370BD140000200849B0F5005F08D0D2
:1013C000B0F5804F07D0B0F5004F01D10220087072
:1013D00070470020FBE70120F9E70000040000202F
:1013E000044910B50A68024202D00860FFF7E4FF22
:1013F00010BD0000140401402DE9F84FDFF8B8914A
:101400000024A9F1040B23460F2709F1040AABF1CC
:10141000040EC9E00125A5402A40AA427DD1674EAD
:10142000D1F804C0ACEB0608B44532D014DCBCF1F2
:10143000030F3AD009DCBCF1000F2AD0BCF1010F38
:101440001CD0BCF1020F31D11DE0BCF1110F17D03F
:10145000BCF1120F2AD119E0B8F5881F19D006DCAB
:10146000B8F5803F15D0B8F5801F1FD111E0B8F551
:10147000001F0ED0B8F5041F18D10AE0CB6815E0A4
:10148000CB681B1D12E0CB6808330FE0CB680C3330
:101490000CE08B682BB1012B4FF0080303D04561A2
:1014A00004E0042302E0056100E00023FF2A01D8E4
:1014B000064601E000F104064FEA840501D9A5F1D2
:1014C0002005D6F8008007FA05FC28EA0C0803FA84
:1014D00005F548EA0508C6F800804D68ED0062D5BC
:1014E000374DAE6946F00106AE61AD6924F00306E2
:1014F00005F001050095334D06EB050CDCF80850AE
:10150000A607360F07FA06F825EA0805DFF8B880BF
:10151000404503D14FF0000817E044E0DFF8AC800D
:10152000404502D14FF001080FE0DFF8A4804045AC
:1015300002D14FF0020808E0DFF89880404502D160
:101540004FF0030801E04FF0040808FA06F848EAF3
:101550000508CCF808804D68D9F80060ED024D46CA
:1015600001D5164300E096432E604D68DAF800601E
:10157000AD02554601D5164300E096432E604D68F6
:10158000DBF80060AD035D4601D5164300E09643ED
:101590002E604D68DEF80060ED03754601D51643F8
:1015A00000E096432E60641C0D682A46E5407FF4F7
:1015B00031AFBDE8F88F00000804014000001110B1
:1015C000001002400000014000080140000C0140F2
:1015D00000100140001401408068084000D0012044
:1015E00070470AB1016170470904FBE70148806850
:1015F00070470000140000200248816802781144FE
:101600008160704714000020074810B5016841F060
:1016100010010160032000F075F80F2000F006F8BB
:1016200000F024F8002010BD0020024070B50D4DE0
:1016300004464FF47A712878B1FBF0F00A49096842
:10164000B1FBF0F000F0AAFB48B9102C07D2002241
:101650002146501E00F036F800206C6070BD01205D
:1016600070BD000014000020200000200C4808B5C8
:10167000816941F001018161816901F001010091FD
:10168000C16941F08051C161C06900F08050009093
:101690000448416821F0E06141F00071416008BDFB
:1016A0000010024000000140002809DB00F01F028A
:1016B000012191404009800000F1E020C0F80011B4
:1016C00070470000F0B40E4B1B680C46C3F30223B6
:1016D000C3F10705042D00D90425191D072901D2DE
:1016E000002300E0DB1E012606FA05F1491E214019
:1016F00099409E40761E16403143F0BC01F09ABCE2
:101700000CED00E0064900F0070208684FF6FF0301
:10171000184040EA0220034A104308607047000066
:101720000CED00E00000FA0510B501460020234C46
:10173000012922D0022939D010291DD161682268DF
:10174000D20119D51E48C1F38342C903805C0AD572
:1017500061681B4AC1F34041921E515C194AB2FBB9
:10176000F1F1484301E0184948436168490203D454
:1017700040000321B0FBF1F010BD226AC2F3012149
:10178000012903D1920701D5C80310BD022905D153
:10179000626A920702D549F6404010BD0329FCD188
:1017A00021688903F9D54FF2244010BD00F030F9CB
:1017B0006168C1F38131491C4900DBE70010024038
:1017C000FC41000800127A0000093D002DE9F843B1
:1017D00005460078354CC00754D0E0690026C000AB
:1017E00008D4E06940F08050E061E069012600F033
:1017F000805000902E480168C90512D401688046C7
:1018000041F480710160FFF7F1FE074605E000BF7B
:10181000FFF7ECFEC01B642823D8D8F80000C005F1
:10182000F6D5206A10F4407021D0A98801F44071E7
:1018300081421CD0206A1F49012220F440700A60B6
:1018400000220A602062C00711D0FFF7CFFE0746D2
:1018500041F2883808E000BFFFF7C8FEC11B4145D0
:1018600002D90320BDE8F883206A8007F4D5206AF6
:10187000696820F44070084320621EB1E06920F0DE
:101880008050E0612878800705D56068A96820F459
:101890004040084360602878C00605D56068E96864
:1018A00020F48000084360600020DBE70010024065
:1018B00000700040400442422DE9F0470F46050009
:1018C00061D0434E306800F00700B84209D230685A
:1018D00020F0070038433060306800F00700B8425D
:1018E00051D128683B4C810712D5400703D5606869
:1018F00040F4E06060602878000703D5606840F439
:10190000605060606068A96820F0F0000843606083
:101910002878C00728D06868012810D021680228DC
:1019200010D0890700292EDA616821F003010143F4
:101930006160FFF75BFE804641F288390DE0216867
:101940008903EFE78901EDE7FFF750FEA0EB0801FF
:10195000494502D90320BDE8F0876068696800F056
:101960000C00B0EB810FEFD1306800F00700B842F7
:101970000BD9306820F0070038433060306800F041
:101980000700B84201D00120E5E72878400705D5D7
:101990006068E96820F4E060084360602878000728
:1019A00006D56068296920F4605040EAC100606093
:1019B00000F03EF86168084AC1F30311515CC84069
:1019C0000649086006480068FFF730FE0020C2E7BD
:1019D00000200240001002400C42000820000020BD
:1019E0001800002001480068704700002000002017
:1019F0000448054900684968044AC1F30221515C62
:101A0000C840704720000020001002401C4200081F
:101A10000448054900684968044AC1F3C221515C81
:101A2000C840704720000020001002401C420008FF
:101A30000E4A51680E4801F00C03042B11D0082BFC
:101A40000FD10C48C1F38343C903C05C0AD5516868
:101A5000084AC1F34041921E515C054A5043B0FB15
:101A6000F1F07047044948437047000000100240FD
:101A700000127A00EA41000800093D002DE9F84F04
:101A8000040070D02078C04DC00749D06868C0F30A
:101A90008100012807D06868C0F38100022809D1BD
:101AA0006868C00306D52868800339D560680028B7
:101AB000E7D035E06068B0F5803F0BD010B1B0F5ED
:101AC000A02F11D0286820F480302860286820F4E6
:101AD000802002E0286840F480302860606890B17F
:101AE000FFF784FD06460AE0286840F4802028605D
:101AF000F0E700BFFFF77AFD801B642873D82868E1
:101B00008003F7D50CE0FFF771FD064605E000BF46
:101B1000FFF76CFD801B6428F0D828688003F7D499
:101B200020789A4E80074FF001094FF0000839D510
:101B3000686810F00C0F07D06868C0F381000228B5
:101B400009D16868C00306D42868800714D52069C5
:101B5000012808D110E02069B0B1C6F80090FFF765
:101B600045FD074605E00AE1FFF740FDC01B0228DE
:101B7000C4D828688007F7D52868616920F0F80084
:101B800040EAC10028600DE0C6F80080FFF72EFD96
:101B9000074604E0FFF72AFDC01B022823D8286867
:101BA0008007F7D4207800072CD57948A169D9B1EE
:101BB000C0F80090FFF71AFD074604E0FFF716FD96
:101BC000C01B02280FD8686A8007F7D571484FF408
:101BD000FA510068B0FBF1F0009000BF0098411E80
:101BE0000091FAD20EE080E0C0F80080FFF7FEFC22
:101BF000074604E0FFF7FAFCC01B022875D8686AA4
:101C00008007F7D42078400760D5E8690027C00036
:101C100008D4E86940F08050E861E869012700F0E5
:101C2000805000905C480168C90513D40168834660
:101C300041F480710160FFF7D9FC824606E000BFE5
:101C4000FFF7D4FCA0EB0A0064284ED8DBF80000B4
:101C5000C005F5D5E06801280AD008B1052813D0E1
:101C6000286A20F001002862286A20F0040002E0BF
:101C7000286A40F001002862E06841F2883B98B190
:101C8000FFF7B4FC82460BE0286A40F004002862AB
:101C9000EEE700BFFFF7AAFCA0EB0A0159455AD8AE
:101CA000286A8007F6D50CE0FFF7A0FC824605E025
:101CB000FFF79CFCA0EB0A0159454CD8286A800725
:101CC000F6D41FB1E86920F08050E861E06988B37C
:101CD0006968C1F38101022944D00228C6F86080F6
:101CE00004D0FFF783FC044638E034E0FFF77EFCC5
:101CF000074604E0FFF77AFCC01B02282BD82868AF
:101D00008001F7D4206AB0F5803F05D16868A168EA
:101D100020F4003008436860D4E90801084369688A
:101D200021F4741108436860C6F86090FFF75EFC08
:101D3000044606E025E000BFFFF758FC001B022820
:101D400009D828688001F7D51BE000BFFFF74EFCDB
:101D5000001B022802D90320BDE8F88F2868800103
:101D6000F4D40EE00128F7D06868226A00F48031CC
:101D7000914204D1616A00F47010884201D00120C0
:101D8000EAE70020E8E700000010024000004242BD
:101D900080044242200000200070004010B5401E28
:101DA000B0F1807F01D3012010BD4FF0E0246061CD
:101DB0000F21601701F03EF90020A061072020618B
:101DC000002010BD7047704770B590F83C20012A84
:101DD00026D0012480F83C40022280F83D20036890
:101DE0005A689D6822F070060A6832435A600D4BAB
:101DF00002689A4208D0B2F1804F05D00A4B9A424D
:101E000002D00A4B9A4204D1496825F08003194355
:101E1000916080F83D40002180F83C10084670BD7C
:101E2000022070BD002C014000040040000800406A
:101E300010B5040003D094F83D0010B107E0012074
:101E400010BD002084F83C00204600F01FF802205E
:101E500084F83D00211D206800F04EFE012084F82A
:101E6000460084F83E0084F83F0084F8400084F87F
:101E7000410084F8420084F8430084F8440084F868
:101E8000450084F83D00002010BD000008B5006842
:101E90000B49884212D10B48816941F4006181618C
:101EA0008069002200F40060009011461920FFF7BD
:101EB00009FCBDE808401920FFF7F6BB08BD00008B
:101EC000002C01400010024090F83D10012901D083
:101ED00001207047022180F83D100168CA6842F075
:101EE0000102CA6000680B49884208D0B0F1804FF7
:101EF00005D00949884202D00849884204D1816846
:101F000001F00701062903D0016841F001010160D9
:101F100000207047002C01400004004000080040F1
:101F200070B5044690F83C000025012817D0012622
:101F300084F83C60022084F83D002068826822F02A
:101F4000770222F47F4282600868502838D00DDC86
:101F500020284FD005DC90B3102811D14AE0022090
:101F600070BD302846D040280AD13BE060282FD0F1
:101F700070280DD0B0F5805F03D0B0F5005F12D0AF
:101F8000012584F83D60002084F83C00284670BD9F
:101F9000CB68D1E90121206800F0EAFD2068816862
:101FA00041F0770109E0CB68D1E90121206800F018
:101FB000DFFD2068816841F480418160E1E719E03C
:101FC000CA684968206800F0E5FD5021206806E0F5
:101FD000CA684968206800F0EEFD6021206800F0C2
:101FE000D1FDCEE7CA684968206800F0D3FD4021E2
:101FF0002068F4E7226801461046F0E770472DE9B3
:10200000F04104460068C66805694FF00007A9075B
:1020100013D5B10711D5F91E016101202077206881
:1020200080698007204602D0FFF7E8FF04E000F057
:102030007EF8204600F07CF82777680716D57007F1
:1020400014D521686FF00400086102202077206811
:10205000806910F4407F204602D0FFF7CFFF04E0F4
:1020600000F065F8204600F063F82777280715D5BB
:10207000300713D521686FF008000861042020772D
:102080002068C0698007204602D0FFF7B7FF04E050
:1020900000F04DF8204600F04BF82777E80616D5FB
:1020A000F00614D521686FF0100008610820207731
:1020B0002068C06910F4407F204602D0FFF79EFFE1
:1020C00004E000F034F8204600F032F82777E80703
:1020D00008D0F00706D021686FF0010008612046A3
:1020E00000F028F8280608D5300606D521686FF0DC
:1020F000800008612046FFF765FE680608D5700677
:1021000006D521686FF040000861204600F02AF8EB
:10211000A8060AD5B00608D521686FF0200008612E
:102120002046BDE8F041FFF74EBEBDE8F0817047A4
:10213000704700000068094988420DD1084841688D
:10214000491C4160427802EB8202B1EB820F03D15D
:10215000002141600121017070470000002C014006
:10216000080000207047704710B5044600684069B9
:1021700094F84110C0F3C010212911D180B120681A
:10218000143050E8001F21F0800140E80012002ABE
:10219000F5D1A06B08B1FEF77DFF204600F0C3FD2E
:1021A0002068406994F84210C0F38010222911D1B0
:1021B00080B12068143050E8001F21F0400140E851
:1021C0000012002AF5D1E06B08B1FEF763FF20464C
:1021D00000F082FD002010BD70470000F8B50168D6
:1021E00004460868CA684B6910F00F0F4FF00005ED
:1021F00059D003F0010602F49077374365D0C10748
:1022000005D0D10503D5616C41F00101616441073E
:1022100005D5D90703D0616C41F0020161648107E3
:1022200005D5D90703D0616C41F004016164010751
:1022300007D502F02001314303D0616C41F0080161
:102240006164616C00293AD0800604D5900602D5FD
:10225000204600F076FD20684069616CC0F3801074
:10226000090700D460B3204600F036FD20684069BD
:10227000400621D52068143050E8001F21F04001AD
:1022800040E80012002AF5D1E06BA8B16D49416326
:10229000E06BFEF723FF002811D0E06B416B01B02B
:1022A000BDE8F040084783060FD593060DD52046BC
:1022B000BDE8F84000F045BD2046FFF78DFFF8BDB2
:1022C0002046FFF789FF6564F8BD266B2023012EA9
:1022D0007CD1C6067AD5D60678D5086848680090BD
:1022E00048694FF00206400640D5E16B0868406837
:1022F0000004000CE8D0A28D8242E5D9E08588690F
:1023000020282DD020680C3050E8001F21F4807167
:1023100040E80012002AF5D12068143050E8001F70
:1023200021F0010140E80012002AF5D120681430A4
:1023300050E8001F21F0400140E80012002AF5D1CA
:1023400084F84230256320680C3050E8001F21F0EB
:10235000100140E80012002AF5D1E06BFEF79AFE6A
:102360006663A08DE18D401A81B22AE0A08DE18DD7
:10237000401A81B2E08D0028A6D00029A4D022689E
:102380000C3252E8000F20F4907042E80007002F52
:10239000F5D12068143050E8002F22F0010240E807
:1023A0000027002FF5D184F84230256320680C30D7
:1023B00050E8002F22F0100240E80023002BF5D156
:1023C00066632046FFF7CFFEF8BDFFE705062BD575
:1023D000150629D594F841002128F5D1A068B0F55B
:1023E000805F01D12069B0B1206A411C216221685F
:1023F00000784860E08C401E0004000CE084E3D1CB
:102400002068C16821F08001C1602068C16841F086
:102410004001C160D8E7206A0088C0F30800486026
:10242000206A801C2062E5E74006CDD55006CBD55A
:10243000CA68204622F04002CA6084F8413000F0A9
:1024400015F9C1E7DB2B000870B5040004D094F83F
:102450004100002510B106E0012070BD84F8405015
:10246000204600F023F8242084F841002068C16849
:1024700021F40051C160204600F0C4FC20680169CD
:1024800021F4904101612068416921F02A014161F4
:102490002068C16841F40051C1606564202084F85F
:1024A000410084F842006563002070BDF0B585B03E
:1024B0000024009401940294039406460368344F68
:1024C0000220344903224502BB4221D18B6943F4E7
:1024D00080438B618B6903F4804304938B6943F0E1
:1024E00004038B6189692C4E01F0040104910102FF
:1024F000CDE90010039269463046FEF77DFFCDE935
:102500000054694630460294FEF776FF05B0F0BDF0
:10251000224FBB42FAD1CB6943F48023CB61CB6914
:1025200003F4802304938B6943F008038B6189696A
:1025300001F00801CDE90321CDE90050184D6946AD
:102540002846FEF759FFE814CDE9000469462846FD
:102550000294FEF751FF144D1248C5E90004802093
:10256000C5E902402C616C61AC612846EC61FEF764
:10257000ABFE08B1FEF739FBF563002211462720B8
:102580006E62FFF79FF82720FFF78EF8BEE7000086
:10259000003801400010024000080140004800409F
:1025A000000C0140300002408828002090F84230A2
:1025B000202B01D00220704721B11AB10023036300
:1025C00000F07CBC01207047704770472DE9F8434C
:1025D000044690F84100984616460D46202802D041
:1025E0000220BDE8F88385B17EB10020606421201F
:1025F00084F84100FEF7FAFFA6848146E684A068CD
:102600002027B0F5805F02D003E00120E9E72069D0
:1026100010B12E4600250EE000260CE08021204659
:1026200000F094FCA8B9C6B116F8010B2168486007
:10263000E08C401EE084E08C4B464FF00002CDF869
:1026400000800028EAD14FF04001204600F07EFCD7
:1026500040B184F841700320C3E735F8020BC0F3A2
:102660000800E3E784F841700020BAE77047FEE70E
:10267000012000F00FB810B5382000F00BF80C2046
:1026800000F008F8062000F005F8BDE81040012031
:10269000AFF3008070B5184D044600224FF400518E
:1026A0002846FEF79EFF00224FF480412846FEF7A1
:1026B00098FF4FF40046002231462846FEF791FF6E
:1026C0000520FEF767FE0D48C16801F47F422243F2
:1026D000C2600520FEF75EFE012231462846FEF765
:1026E00080FF0520FEF756FE31462846BDE87040C3
:1026F0000022FEF776BF00000010014000080140F4
:1027000070B5174D0446012251032846FEF769FFB4
:1027100000224FF480412846FEF763FF4FF4004645
:10272000002231462846FEF75CFF0520FEF732FE08
:102730000C48C16801F47F422243C2600520FEF7C5
:1027400029FE012231462846FEF74BFF0520FEF701
:1027500021FE31462846BDE870400022FEF741BF09
:1027600000100140000801403EB5002411480094CB
:10277000019402940E49846001600473047501257C
:1027800005614FF460214460C161FEF7B3FA08B1FE
:10279000FEF72BFA0820CDE90005694602940548AA
:1027A000FEF726FA002801D0FEF71FFA3EBD000012
:1027B00000240140400000203EB500241148009450
:1027C000019402940E49846001600473047501252C
:1027D00005614FF460214460C161FEF78BFA08B1D6
:1027E000FEF703FA0920CDE9000569460294054881
:1027F000FEF7FEF9002801D0FEF7F7F93EBD000014
:102800000028014070000020094808B5416941F0E6
:10281000010141614069002200F001000090114671
:102820000D20FEF74FFFBDE808400D20FEF73CBF2E
:10283000001002402DE9F04385B000254D48009579
:10284000019502950395816941F0100181618169CB
:1028500001F010010491816941F0200181618169D9
:1028600001F020010491816941F0040181618169D5
:1028700001F004010491816941F0080181618069DE
:102880003D4F00F008004FF46046049000223146AE
:102890003846FEF7A6FEDFF8E4800022FF2140461E
:1028A000FEF79FFEDFF8D890012241F2F83148464A
:1028B000FEF797FE01224FF401414046FEF791FEDC
:1028C00001240096CDE90145694638460394FEF798
:1028D00093FDFF208DE83100694640460394FEF7E2
:1028E0008BFD2003CDE90004029469464846039419
:1028F000FEF782FD23480096CDE90104694648466B
:10290000FEF77AFD200202258DE831006946404637
:102910000394FEF771FDE003CDE900040326CDE941
:10292000024669464046FEF767FD18208DE83100F3
:10293000694648460394FEF75FFD4FF4F0708DE85A
:10294000710069464846FEF757FD6002CDE9000474
:10295000CDE9024669464846FEF74EFD0022114683
:102960002820FEF7AFFE2820FEF79EFE05B0BDE84A
:10297000F0830000001002400010014000080140F8
:10298000000C01400000211010B586B0002418484A
:1029900000940194029403940494144905940160F2
:1029A0004721C0E901144FF6FF71C0E903144461E7
:1029B0008461FFF73DFA08B1FEF717F94FF4805034
:1029C000009069460A48FFF7ABFA08B1FEF70DF927
:1029D000049404A906480594FFF7F6F908B1FEF738
:1029E00004F90348FFF770FA06B010BD002C01404F
:1029F000A00000200C4810B50A4901604FF4E131F5
:102A00004160002181600C22C160C0E90412816133
:102A1000C161FFF719FD002803D0BDE81040FEF7A3
:102A2000E4B810BD00380140F82700200C4810B56C
:102A30000A4901604FF4E1314160002181600C22BC
:102A4000C160C0E904128161C161FFF7FDFC00288B
:102A500003D0BDE81040FEF7C8B810BD00480040E4
:102A600040280020FEE7FEE770477047FEF7C4BD30
:102A700030B593B028216846FDF76BFB14210AA8F6
:102A8000FDF767FB002501200F95109511950104B6
:102A900012958DE8230004904FF4E010CDE9081062
:102AA000022407946846FEF7E9FF08B172B6FEE714
:102AB0000AA90F2081E831004FF48060CDE90D05AF
:102AC00002210AA8FEF7F8FE08B172B6FEE74FF43D
:102AD000004011900F940FA8FEF778FE002801D057
:102AE00072B6FEE713B030BD704700000148FFF733
:102AF00086BA0000A0000020F0B50268194B1A4CFD
:102B00001A4D4FF08047984205D0B84203D0A042FA
:102B100001D0A84203D122F070064A68324398429D
:102B200005D0B84203D0A04201D0A84203D122F47C
:102B30004074CA6822434C6922F08002224302603A
:102B40008A68C2620A688262984201D10969016397
:102B5000012141610169C90703D0016921F0010127
:102B60000161F0BD002C014000040040000800405D
:102B700010B5846842EA032224F47F440A432243C6
:102B8000826010BD826822F070020A4342F00701A1
:102B90008160704710B5036A046A24F0010404627E
:102BA000846924F0F00444EA021423F00A020A4380
:102BB0008461026210BD10B5036A046A24F0100437
:102BC0000462846923F0A00324F4704444EA0232CE
:102BD00043EA01118261016210BD10B5406A002113
:102BE000C185C184FFF7F8FA10BD70B5446A20684A
:102BF000406994F84110C0F3C0100025212904D188
:102C000018B1E584204600F08EF82068406994F8F9
:102C10004210C0F38010222904D118B1E585204666
:102C200000F05AF8606C40F0100060642046FFF736
:102C3000D3FA70BD10B50146406A096809684FF0C3
:102C4000000289062ED4C28501680C3151E8003F8C
:102C500023F4807341E80034002CF5D1016814316D
:102C600051E8003F23F0010341E80034002CF5D186
:102C70000168143151E8003F23F0400341E800347B
:102C8000002CF5D1202180F84210016B012909D1D7
:102C900001680C3151E8003F23F0100341E8003493
:102CA000002CF5D14263016B012902D0FFF78CFCA7
:102CB00010BD818DFFF757FA10BD10B5406A012194
:102CC0004163016B012902D0FFF77FFC10BD818DAC
:102CD0004908FFF748FA10BD01680C3151E8002F90
:102CE00022F4907241E80023002BF5D101681431E1
:102CF00051E8002F22F0010241E80023002BF5D11A
:102D0000016B012909D101680C3151E8002F22F033
:102D1000100241E80023002BF5D1202180F8421059
:102D200000210163704701680C3151E8002F22F047
:102D3000C00241E80023002BF5D1202180F841108A
:102D4000704708B590F84210222901D0022008BD32
:102D500082684FF480539A4201D1016921B1816A9E
:102D60009A421BD04AB10AE00268816A5268C2F3F3
:102D700008020A80816A891C08E0026972B102684F
:102D8000526802F07F020A70816A491C8162C18D1B
:102D9000491E0904090CC18503D01BE00268526872
:102DA000F1E70168CA6822F02002CA600168CA68B7
:102DB00022F48072CA6001684A6922F001024A6105
:102DC000202180F8421000214163026B012A03D0C8
:102DD000FFF7FAFB002008BD016301680C3151E8E0
:102DE000002F22F0100241E80023002BF5D10168EA
:102DF0000A68D20602D50A6849680091818DFFF7FA
:102E0000B2F9E7E770B5044600680169E26821F4A9
:102E10004051114301612169A06808436169084379
:102E20002168CA6841F20C639A430243CA60206871
:102E30004169A26921F44071114341611E49206832
:102E4000884202D1FEF7E4FD01E0FEF7D1FD00EB80
:102E5000C00101EB0012606864218000B2FBF0F356
:102E6000B3FBF1F36FF018067343B2FBF0F5B2FB5E
:102E7000F0F605EB8305322303EB0515B5FBF1F501
:102E8000B6FBF1F605F0F00505EB0615B2FBF0F622
:102E9000B2FBF0F0B0FBF1F06FF01802504306EB1C
:102EA000800003EB0010B0FBF1F0216800F00F0090
:102EB0002844886070BD00000038014038B5816248
:102EC00004468285002013466064222284F8422052
:102ED000E56B1B4AAA62E56B1A4AEA62E56B1A4A7D
:102EE0002A63E26B50630A462168E06B091DFEF716
:102EF00019FA2068016840680090206948B120688C
:102F00000C3050E8001F41F4807140E80012002AA4
:102F1000F5D12068143050E8001F41F0010140E86D
:102F20000012002AF5D12068143050E8001F41F04B
:102F3000400140E80012002AF5D1002038BD000011
:102F4000352C0008BB2C0008EB2B00082DE9F843BA
:102F5000984617460D460446089E24E0701C22D071
:102F6000FEF744FBA0EB0800B0421AD8CEB12068AF
:102F7000C168490717D5802D15D0402D13D00168A1
:102F8000C94309070FD40168002540680090204616
:102F9000FFF7A2FE0820606484F840500120BDE8DD
:102FA000F8830320FBE72068006835EA000004D0BE
:102FB0000020B842D2D00020F1E70120F9E700005C
:102FC0000D4808B500680168C943C9060FD40168F7
:102FD000406800900848FFF7C7F808480068406854
:102FE0000749C0F110000870064901200870BDE8CB
:102FF00008400148FFF7F2B8402800208828002048
:103000001000002011000020FEE700000FB4084B64
:1030100010B504A902AA039800F0EEF8044602A92C
:10302000002000F080FC204610BC5DF814FB00007E
:10303000273900080907090E002804DB00F1E02009
:1030400080F80014704700F00F0000F1E02080F8D5
:10305000141D704702E008C8121F08C1002AFAD1E7
:1030600070477047002001E001C1121F002AFBD108
:10307000704700002DE9FF5F82B00021DDE90430D8
:10308000020DDDF840B0034318D044F61050A2F210
:10309000FF3242431514119801281FD0A5EB0B00F5
:1030A000401C5FEA000A4FF000064E4FDFF83891EF
:1030B000B046504615D5CAF1000413E0119801241A
:1030C0004AA3012801D16FEA0B010298119AC0E9C5
:1030D0000031C0E9024206B0BDE8F09FCBF100002C
:1030E000DFE704460021404A491842EB0450CDE98D
:1030F000001012E0E00707D032463B464046494602
:10310000FDF7F8F88046894632463B461046194698
:10311000FDF7F0F806460F466410002CEAD1DDE911
:103120000401DDE90023BAF1000F06DAFDF7E2F849
:1031300042464B46FDF7DEF805E0FDF74DF9424605
:103140004B46FDF749F904460E460022284BFDF791
:103150005DFB03D84FF0FF30014607E00022254B0E
:1031600020463146FDF71FF8FDF738FB102409E033
:10317000002C0ADB0A220023FDF74AFA039B3032B7
:103180001A55641E50EA0102F2D1641C039AC4F17C
:1031900011031444119A012A03D0012208430DD1CE
:1031A0000AE0084304D000204FF0110B119072E7A1
:1031B000A3EB0B056D1E0DE05B4504DD4FF0000237
:1031C00005F1010504E003DA4FF00002A5F1010565
:1031D000002AECD002981199C0E90231C0E90045FB
:1031E00079E70000000014400000F03F30000000CC
:1031F0000000F0430000E03F2DE9FF4F95B09B46F3
:103200008946064600250FE2252877D10024274667
:10321000F84A0121059400E0044316F8013F203BE1
:1032200001FA03F01042F7D130782A2811D06FF05C
:103230002F033078A0F13002092A16D8059A44F0FD
:10324000020402EB820203EB42021044761C05905A
:10325000EFE759F8042B0592002A03DA504244F4B0
:103260000054059044F00204761C30782E2816D1C4
:1032700016F8010F44F004042A280DD06FF02F0235
:103280003078A0F13003092B09D807EB870302EB54
:103290004303C718761CF3E759F8047B761C307893
:1032A0006C280FD006DC4C2817D068280DD06A286F
:1032B00014D104E0742810D07A280FD10DE044F422
:1032C00000140AE044F4801401E044F440147278DD
:1032D000824202D104F58014761C761C3078662870
:1032E0000BD013DC582877D009DC002875D045288E
:1032F000F6D04628F4D047281AD19DE118E063287B
:1033000035D0642879D0652812D195E1702873D022
:1033100008DC6728F1D069286FD06E280DD06F289F
:1033200006D1B5E073282CD0752875D0782874D0D4
:103330005A46179990476D1C75E1C4F30250022854
:1033400009D003280DD0D9F8001004280DD00D6045
:1033500009F1040967E1D9F80010EA17C1E9005240
:10336000F6E7D9F800100D80F2E70D70F0E719F8D4
:10337000041B8DF8001000208DF80100EA460120A2
:1033800003E059F804AB4FF0FF3061074FF0000144
:1033900002D40DE008F101018846B9420FDA8045F8
:1033A000F8DB1AF808100029F4D108E008F101014F
:1033B00088468142FADB1AF808100029F6D10598F0
:1033C0005B46A0EB080721463846179A00F094FAAE
:1033D000284400EB080507E04DE029E10DE01AF86C
:1033E000010B5A4617999047B8F10108F7D25B468E
:1033F00021463846179A13E142E00A220092C4F3AC
:1034000002524FF0000A022A08D059F804CB032ACE
:103410004FEAEC710AD00DE029E02AE009F107013A
:1034200021F00702F2E802C1914609E00FFA8CFC94
:103430004FEAEC71042A03D14FFA8CFC4FEAEC718D
:10344000002907DA0A460021DCF1000C61EB0201D9
:103450002D2202E0220504D52B228DF80420012222
:1034600003E0E20701D02022F7E7904659E00A2165
:1034700002E010220DE010214FF0000A00910BE055
:1034800010224FF0000A44F004040827009203E0E1
:1034900008224FF0000A0092C4F30252022A05D01B
:1034A00059F804CB0021032A08D009E009F10701EB
:1034B00021F00702F2E802C1914605E01FFA8CFCF8
:1034C000042A01D10CF0FF0C4FF00008220728D588
:1034D000702806D0009B83F0100353EA0A0305D03E
:1034E0000EE040228DF80420012208E05CEA01028F
:1034F00006D030228DF804208DF805000222904677
:10350000009B83F0080353EA0A030AD15CEA010234
:1035100001D1620705D530228DF804204FF0010853
:103520007F1E582804D034A003900EA802900DE00E
:1035300036A0F9E753466046009AFDF769F88446DD
:103540000398825C0298401E029002705CEA0100BF
:10355000F0D1029806A9081A00F1200A600702D5E6
:1035600024F4803400E00127574502DDA7EB0A0070
:1035700000E0002000EB0A01009005984144401A49
:103580000590E00306D45B462146179A059800F0A3
:10359000B3F90544002706E001A85A46C05D179913
:1035A00090476D1C7F1C4745F6DBE0030CD55B465E
:1035B0002146179A059800F09FF9054404E0302051
:1035C0005A46179990476D1C0099481E0090002993
:1035D000F5DC08E0029802995A460078491C0291ED
:1035E000179990476D1CBAF10001AAF1010AF1DCAC
:1035F00065E10000092801003031323334353637B7
:10360000383961626364656600000000303132332E
:1036100034353637383941424344454600000000CE
:1036200000F058F90544761C307800287FF4ECADA2
:1036300019B02846BDE8F08F620700D4062709F1CB
:10364000070222F0070CFCE80223E14603F00048E1
:103650005FEA080C02D00FF2702C0DE05FEA045C08
:1036600002D50FF2682C07E05FEAC47C02D00FF2AB
:10367000602C01E0AFF2700C4FF0FF3823F00043F4
:10368000CDF850C065280CD006DC452809D0462866
:103690001DD047283DD13DE0662818D067287ED14F
:1036A00038E00021112F01DB112000E0781CCDE96A
:1036B000000106A90EA8FFF7DDFCDDE90F010E9A57
:1036C00003910021009207F1010A04914DE04FF0AF
:1036D00000400097CDE9011006A90EA8FFF7CAFC2B
:1036E000DDE90F0203920E9B11990022DDF80CA078
:1036F0000093049211B9791C00EB010AB7EB0A00A0
:1037000004D4C0F1FF3007F1010A0490AAEB0700CE
:10371000019044E0012F00DA01270021112F01DD83
:10372000112000E03846CDE9000106A90EA8FFF7F8
:10373000A1FCDDE90F010E9A039100210491009292
:10374000BA4621070CD40399514500DA8A46BAF1EA
:10375000010F05DD009AAAF10101515C302908D062
:10376000B84202DA10F1040F06DA0121CDE90110A6
:1037700015E0AAF10101E9E7002805DC04990144FC
:103780000491AAEB000102E0411C514500DD8A468C
:103790000499401A401C01904FF00040029020070D
:1037A00004D40198504501DBCDF8048000208DF849
:1037B0004F0002980DF14F07B0F1004F25D02B209C
:1037C0000E9002984FF0020800280CDA4042029056
:1037D0002D200E9007E00A210298FCF703FF3031FC
:1037E000029007F8011DB8F10001A8F10108F2DC10
:1037F00002980028EFD1791E0E980870307800F0FA
:10380000200040F0450007F8020D12A8C01B00F18F
:1038100007081498007800B1012000EB0A01019814
:1038200001EBE07105984144401A401E0590E00309
:1038300006D45B462146179A059800F05DF80544CA
:103840001498007818B15A46179990476D1CE003F8
:1038500024D55B462146179A059800F04DF805449B
:103860001CE00498002807DBDDE90301884203DD42
:103870000098405C179901E0179930205A4690470C
:10388000049805F10105401C04900198401E019028
:1038900004D12E205A46179990476D1CBAF10001A9
:1038A000AAF1010ADDDC05E017F8010B5A46179969
:1038B00090476D1CB8F10001A8F10108F4DC5B46EB
:1038C0002146179A0598ABE62D0000002B0000005A
:1038D000200000002DE9F041044600251E46174651
:1038E000880404D405E039462020B0476D1C641ECE
:1038F000F9D52846BDE8F0812DE9F04104460025C0
:103900001E469046C80301D5302700E020278804D2
:1039100004D505E041463846B0476D1C641EF9D514
:103920002846BDE8F0810A68531C0B601070704790
:103930002DE9F04721A10FF2900825A70FF2980971
:1039400027480278002A37D000240470092225482D
:10395000FCF71CFC244D012600B92E70414621487D
:10396000FCF702FC10B1012000F046F839461D4872
:10397000FCF7FAFB1D4F28B16E7000220821384673
:10398000FDF72FFE49461748FCF7EEFB28B16C7097
:10399000012208213846FDF724FE154804704FF433
:1039A0007A7421460F48FCF7D4FB2246BDE8F04765
:1039B0000C491048FEF7FABDBDE8F087302C434FA4
:1039C0004E4E4543540000006C61796F6E0000005C
:1039D00066616E6F6E00000066616E6F6666000065
:1039E00011000020E80000203E000020000C0140F3
:1039F0001000002040280020024610210148FDF759
:103A0000F0BD0000000C01402DE9F04100241546F6
:103A10000646012918D80F2E16D8C6F1100781B115
:103A200024E0A74204EB060001DD803000E0B03066
:103A3000C0B2FEF72FFE2878FEF762FE641CE4B2E7
:103A40006D1C28780028ECD1BDE8F081A74204EB7A
:103A5000060001DDC03000E07030C0B2FEF71AFE93
:103A60002878FEF74DFE641CE4B26D1C287800280F
:103A7000ECD1E9E792B04FF00008CDF83C80CDF8EA
:103A80004080FDF7C1FDFEF7F3FFFEF7D3FEFEF722
:103A9000BBFEFEF7AFFFFEF767FEFEF78DFEFEF7FB
:103AA000C5FFFEF771FF0020FFF7A6FFFEF7E3FD5D
:103AB00000F0E0F94FF0030BDFF8F891FCF74AFF54
:103AC000FFF736FF7C48FDF785FA0A217A48FDF7B3
:103AD000E3F97948FDF70AF980B2FCF714FD774E57
:103AE0004FF066352A463346FCF704FC6FF00B07AF
:103AF0003A46FCF7E0FCFCF745FD8246FCF72FFD5B
:103B000004460B46009122466DA10FA8FFF77EFAEE
:103B10000FAA01210020FFF777FF6B48FDF75AFA43
:103B20000A216948FDF7B8F96748FDF7DFF880B268
:103B3000FCF7E9FC2A463346FCF7DCFB3A46FCF787
:103B4000BAFCFCF71FFD0746FCF709FD0E460546CB
:103B500033462A465AA110A8FFF758FA10AA0121A5
:103B60000620FFF751FF59480168491C0A220160ED
:103B700091FBF2F169B1C0F80080009BCDE90056DD
:103B8000224653A102A8FFF741FA182102A800F02B
:103B900031F9554801685046FCF710FD01D201206B
:103BA00000E00020FFF728FF504801683846FCF786
:103BB00005FD1AD24E460025C9F800800CE000240D
:103BC0003178204600F0B0F80120FDF7E3FB641CDB
:103BD000E4B2082CF4D36D1C5A2000F091F8C11700
:103BE00000EB5170B5EBE00FE9DB41480168384666
:103BF000FCF7EEFC01D2002200E001224FF48071BC
:103C00003C48FDF7EEFC3C4D2878012805D185F8AD
:103C100000B0FEF72DFD00F0A7F92878E8B90120E3
:103C200085F800B04F460026C9F800000CE00024DB
:103C30003978204600F078F80120FDF7ABFB641CD2
:103C4000E4B2082CF4D3761C5A2000F059F8C117BE
:103C500000EB5170B6EBE00FE9DB2878022804D1C5
:103C600085F800B00120FFF7C7FE2448017800293D
:103C70003FF424AF80F8008001204D460026C9F8AB
:103C800000000CE000242978204600F04DF80120C7
:103C9000FDF780FB641CE4B2082CF4D3761C5A2098
:103CA00000F02EF8C11700EB5170B6EBE00FBFF635
:103CB00005AFE7E7380000204000002066660A40B4
:103CC000252E336600000000700000200000002058
:103CD0006C696768743A252E3366207765743A25D7
:103CE0002E33660D0A0000002C000020300000205A
:103CF00034000020000801400400002008000020DB
:103D000010B5FCF7EFFB0022054BFCF765FB062224
:103D1000FCF7D1FBFCF704FC024980B2088010BD1F
:103D2000008016403C00002070B5012902D1C0F18E
:103D30000800C0B22E4CA515082857D2DFE800F0C5
:103D4000040B181F26323E40012220212046FDF799
:103D500048FC002201E001220BE040212046FDF753
:103D600040FC002280212046FDF73BFC002237E08A
:103D7000002220212046FDF734FC0122EDE700223D
:103D800020212046FDF72DFC012205E00022202104
:103D90002046FDF726FC002240212046FDF721FCAD
:103DA0000122DFE7002220212046FDF71AFC002235
:103DB00040212046FDF715FC01220CE0002200E026
:103DC000012220212046FDF70CFC00224021204644
:103DD000FDF707FC002280212046FDF702FC0122AE
:103DE00029462046BDE87040FDF7FBBB70BD0000D2
:103DF000000C014070B500259AB00C4606460A2911
:103E000000DA0125A4F10B00592800D2022512483E
:103E1000007800281ED034216846FCF79AF9342136
:103E20000DA8FCF796F922460CA16846FFF7EEF8BC
:103E300005F10F024FF6FF752B4669460C48FEF759
:103E4000C5FB6420FDF7A6FAA2B22B46314608480E
:103E5000FEF7BCFB1AB070BD3E00002041542B435E
:103E6000495053454E443D302C25640D0A00000056
:103E70004028002070B54FF6FF752B460D221DA17E
:103E80002048FEF7A3FB4FF47A742046FDF782FA30
:103E90002B4626221CA11B48FEF798FB2046FDF767
:103EA00079FA2B46082222A11648FEF78FFBA000C4
:103EB000FDF770FA2B460D2220A11248FEF786FB73
:103EC0002046FDF767FA2B46152220A10D48FEF784
:103ED0007DFB2046FDF75EFA0A480068C16841F0A4
:103EE0001001C16022461F490648FEF75FFB012012
:103EF00070BD000041542B43574D4F44453D320D9A
:103F00000A0000004028002041542B4357534150E1
:103F10003D2245535038323636222C22303132334E
:103F2000343536373839222C31312C300D0A000027
:103F300041542B5253540D0A0000000041542B43AE
:103F400049504D55583D310D0A00000041542B4356
:103F500049505345525645523D312C353030300D85
:103F60000A000000E80000202DE9F04F8DB0002786
:103F7000069707970A970B97834C844D844EDFF87A
:103F80001482DFF81492DFF814A2089709970097BB
:103F900001974FF00A0B0297227881A106A8FFF73C
:103FA00035F8002106AA0846FFF72EFD2868FCF721
:103FB000D6FA02460B467CA109A8FFF727F809AA02
:103FC00000210520FFF720FD327879A16846FFF730
:103FD0001DF86A4600210B20FFF716FDD8F80000F7
:103FE000FCF7BDFA02460B4673A16846FFF70EF8D0
:103FF0006A4601210020FFF707FDD9F80000FCF711
:10400000AEFA02460B466FA16846FEF7FFFF6A460E
:1040100001210820FFF7F8FC9AF800105046E9BB90
:1040200003210170052F4BD2DFE807F0030C1B249E
:1040300039002078401EC0B220700A28ACD2282057
:104040002070A9E72868FCF78AFA614A614BFCF7FF
:104050004BF9FCF797FA6049286088429CDA5F4880
:1040600051E03078401EC0B23070022894D286F8F9
:1040700000B091E7D8F80000FCF771FA544A554BAC
:10408000FCF732F9FCF77EFAC8F80000B0F17E5F69
:1040900082DA4FF08041C8F800107DE710E0D9F8CF
:1040A0000000FCF75CFA4A4A4A4BFCF71DF9FCF7A2
:1040B00069FA4B49C9F800008842C2DA494851E020
:1040C0000178022951D103210170052F4DD2DFE87B
:1040D00007F0030C1C2539002078401CC0B220706A
:1040E0002828AED984F800B056E72868FCF737FADC
:1040F000374A384BFCF757F8FCF744FA3749286041
:1041000088429EDB3448286046E73078401CC0B2C5
:1041100030700A2895D9022030703DE7D8F80000A9
:10412000FCF71DFA2A4A2B4BFCF73DF8FCF72AFA5C
:10413000C8F80000B0F1804F9BDD4FF07E50C8F80A
:10414000000029E7D9F80000FCF709FA204A214BC2
:10415000FCF729F8FCF716FA2249C9F80000884252
:1041600087DD1F48C9F8000016E70178012994D1BE
:1041700003217F1C8AF80010042F8EDD0120FEF73A
:1041800089FA0DB0BDE8F08F240000202C0000203B
:10419000090000203000002034000020040000202E
:1041A000543A2530326400004C3A252E30326600F5
:1041B00054533A2530326400534C3A252E3032663F
:1041C00000000000534D3A252E30326600000000FA
:1041D0009A9999999999B93FCDCC4C3ECDCC4C3F09
:1041E000CDCC2C40333353400102020304050607B3
:1041F00008090A0B0C0D0E0F101001020203040532
:10420000060708090A0B0C0D0E0F10100000000025
:104210000000000001020304060708090000000076
:104220000102030444420008000000204000000096
:10423000543000088442000840000020902C000008
:1042400064300008000000000300000000050000CA
:10425000000000000000000001000000100000004D
:104260000000000000127A001E00000000000000A4
:104270009A99193F00000040AE47514000000000ED
:04428000000000003A
:04000005080000ED02
:00000001FF
